{
  "_format": "hh-sol-artifact-1",
  "contractName": "Sender",
  "sourceName": "contracts/Sender.sol",
  "abi": [
    {
      "inputs": [
        {
          "internalType": "address",
          "name": "_router",
          "type": "address"
        },
        {
          "internalType": "address",
          "name": "link",
          "type": "address"
        }
      ],
      "stateMutability": "nonpayable",
      "type": "constructor"
    },
    {
      "inputs": [
        {
          "internalType": "address",
          "name": "owner",
          "type": "address"
        },
        {
          "internalType": "uint256",
          "name": "value",
          "type": "uint256"
        }
      ],
      "name": "FailedToWithdrawEth",
      "type": "error"
    },
    {
      "inputs": [
        {
          "internalType": "uint256",
          "name": "providedIndex",
          "type": "uint256"
        },
        {
          "internalType": "uint256",
          "name": "maxIndex",
          "type": "uint256"
        }
      ],
      "name": "IndexOutOfBound",
      "type": "error"
    },
    {
      "inputs": [
        {
          "internalType": "address",
          "name": "router",
          "type": "address"
        }
      ],
      "name": "InvalidRouter",
      "type": "error"
    },
    {
      "inputs": [
        {
          "internalType": "bytes32",
          "name": "messageId",
          "type": "bytes32"
        }
      ],
      "name": "MessageIdNotExist",
      "type": "error"
    },
    {
      "inputs": [
        {
          "internalType": "address",
          "name": "msgSender",
          "type": "address"
        },
        {
          "internalType": "bool",
          "name": "locked",
          "type": "bool"
        }
      ],
      "name": "NoFundsLocked",
      "type": "error"
    },
    {
      "inputs": [],
      "name": "NoMessageReceived",
      "type": "error"
    },
    {
      "inputs": [
        {
          "internalType": "uint256",
          "name": "",
          "type": "uint256"
        },
        {
          "internalType": "uint256",
          "name": "",
          "type": "uint256"
        }
      ],
      "name": "NotEnoughBalance",
      "type": "error"
    },
    {
      "inputs": [],
      "name": "NothingToWithdraw",
      "type": "error"
    },
    {
      "anonymous": false,
      "inputs": [
        {
          "indexed": true,
          "internalType": "bytes32",
          "name": "messageId",
          "type": "bytes32"
        },
        {
          "indexed": true,
          "internalType": "uint64",
          "name": "sourceChainSelector",
          "type": "uint64"
        },
        {
          "indexed": false,
          "internalType": "address",
          "name": "sender",
          "type": "address"
        },
        {
          "indexed": false,
          "internalType": "address",
          "name": "borrower",
          "type": "address"
        },
        {
          "components": [
            {
              "internalType": "address",
              "name": "token",
              "type": "address"
            },
            {
              "internalType": "uint256",
              "name": "amount",
              "type": "uint256"
            }
          ],
          "indexed": false,
          "internalType": "struct Client.EVMTokenAmount",
          "name": "tokenAmount",
          "type": "tuple"
        }
      ],
      "name": "MessageReceived",
      "type": "event"
    },
    {
      "anonymous": false,
      "inputs": [
        {
          "indexed": true,
          "internalType": "bytes32",
          "name": "messageId",
          "type": "bytes32"
        },
        {
          "indexed": true,
          "internalType": "uint64",
          "name": "destinationChainSelector",
          "type": "uint64"
        },
        {
          "indexed": false,
          "internalType": "address",
          "name": "receiver",
          "type": "address"
        },
        {
          "indexed": false,
          "internalType": "address",
          "name": "depositor",
          "type": "address"
        },
        {
          "components": [
            {
              "internalType": "address",
              "name": "token",
              "type": "address"
            },
            {
              "internalType": "uint256",
              "name": "amount",
              "type": "uint256"
            }
          ],
          "indexed": false,
          "internalType": "struct Client.EVMTokenAmount",
          "name": "tokenAmount",
          "type": "tuple"
        },
        {
          "indexed": false,
          "internalType": "uint256",
          "name": "fees",
          "type": "uint256"
        }
      ],
      "name": "MessageSent",
      "type": "event"
    },
    {
      "anonymous": false,
      "inputs": [
        {
          "indexed": true,
          "internalType": "address",
          "name": "from",
          "type": "address"
        },
        {
          "indexed": true,
          "internalType": "address",
          "name": "to",
          "type": "address"
        }
      ],
      "name": "OwnershipTransferRequested",
      "type": "event"
    },
    {
      "anonymous": false,
      "inputs": [
        {
          "indexed": true,
          "internalType": "address",
          "name": "from",
          "type": "address"
        },
        {
          "indexed": true,
          "internalType": "address",
          "name": "to",
          "type": "address"
        }
      ],
      "name": "OwnershipTransferred",
      "type": "event"
    },
    {
      "inputs": [],
      "name": "acceptOwnership",
      "outputs": [],
      "stateMutability": "nonpayable",
      "type": "function"
    },
    {
      "inputs": [
        {
          "components": [
            {
              "internalType": "bytes32",
              "name": "messageId",
              "type": "bytes32"
            },
            {
              "internalType": "uint64",
              "name": "sourceChainSelector",
              "type": "uint64"
            },
            {
              "internalType": "bytes",
              "name": "sender",
              "type": "bytes"
            },
            {
              "internalType": "bytes",
              "name": "data",
              "type": "bytes"
            },
            {
              "components": [
                {
                  "internalType": "address",
                  "name": "token",
                  "type": "address"
                },
                {
                  "internalType": "uint256",
                  "name": "amount",
                  "type": "uint256"
                }
              ],
              "internalType": "struct Client.EVMTokenAmount[]",
              "name": "destTokenAmounts",
              "type": "tuple[]"
            }
          ],
          "internalType": "struct Client.Any2EVMMessage",
          "name": "message",
          "type": "tuple"
        }
      ],
      "name": "ccipReceive",
      "outputs": [],
      "stateMutability": "nonpayable",
      "type": "function"
    },
    {
      "inputs": [],
      "name": "deposit",
      "outputs": [],
      "stateMutability": "payable",
      "type": "function"
    },
    {
      "inputs": [
        {
          "internalType": "address",
          "name": "",
          "type": "address"
        }
      ],
      "name": "deposits",
      "outputs": [
        {
          "internalType": "uint256",
          "name": "amount",
          "type": "uint256"
        },
        {
          "internalType": "bool",
          "name": "locked",
          "type": "bool"
        }
      ],
      "stateMutability": "view",
      "type": "function"
    },
    {
      "inputs": [],
      "name": "getLastReceivedMessageDetails",
      "outputs": [
        {
          "internalType": "bytes32",
          "name": "messageId",
          "type": "bytes32"
        },
        {
          "internalType": "uint64",
          "name": "",
          "type": "uint64"
        },
        {
          "internalType": "address",
          "name": "",
          "type": "address"
        },
        {
          "internalType": "address",
          "name": "",
          "type": "address"
        },
        {
          "internalType": "address",
          "name": "",
          "type": "address"
        },
        {
          "internalType": "uint256",
          "name": "",
          "type": "uint256"
        }
      ],
      "stateMutability": "view",
      "type": "function"
    },
    {
      "inputs": [],
      "name": "getNumberOfReceivedMessages",
      "outputs": [
        {
          "internalType": "uint256",
          "name": "number",
          "type": "uint256"
        }
      ],
      "stateMutability": "view",
      "type": "function"
    },
    {
      "inputs": [],
      "name": "getRouter",
      "outputs": [
        {
          "internalType": "address",
          "name": "",
          "type": "address"
        }
      ],
      "stateMutability": "view",
      "type": "function"
    },
    {
      "inputs": [
        {
          "internalType": "uint64",
          "name": "destinationChainSelector",
          "type": "uint64"
        },
        {
          "internalType": "address",
          "name": "receiver",
          "type": "address"
        }
      ],
      "name": "getSendFees",
      "outputs": [
        {
          "internalType": "uint256",
          "name": "fees",
          "type": "uint256"
        },
        {
          "components": [
            {
              "internalType": "bytes",
              "name": "receiver",
              "type": "bytes"
            },
            {
              "internalType": "bytes",
              "name": "data",
              "type": "bytes"
            },
            {
              "components": [
                {
                  "internalType": "address",
                  "name": "token",
                  "type": "address"
                },
                {
                  "internalType": "uint256",
                  "name": "amount",
                  "type": "uint256"
                }
              ],
              "internalType": "struct Client.EVMTokenAmount[]",
              "name": "tokenAmounts",
              "type": "tuple[]"
            },
            {
              "internalType": "address",
              "name": "feeToken",
              "type": "address"
            },
            {
              "internalType": "bytes",
              "name": "extraArgs",
              "type": "bytes"
            }
          ],
          "internalType": "struct Client.EVM2AnyMessage",
          "name": "message",
          "type": "tuple"
        }
      ],
      "stateMutability": "view",
      "type": "function"
    },
    {
      "inputs": [
        {
          "internalType": "uint64",
          "name": "destChainSelector",
          "type": "uint64"
        }
      ],
      "name": "isChainSupported",
      "outputs": [
        {
          "internalType": "bool",
          "name": "supported",
          "type": "bool"
        }
      ],
      "stateMutability": "view",
      "type": "function"
    },
    {
      "inputs": [
        {
          "internalType": "bytes32",
          "name": "",
          "type": "bytes32"
        }
      ],
      "name": "messageDetail",
      "outputs": [
        {
          "internalType": "uint64",
          "name": "sourceChainSelector",
          "type": "uint64"
        },
        {
          "internalType": "address",
          "name": "sender",
          "type": "address"
        },
        {
          "internalType": "address",
          "name": "borrower",
          "type": "address"
        },
        {
          "internalType": "address",
          "name": "token",
          "type": "address"
        },
        {
          "internalType": "uint256",
          "name": "amount",
          "type": "uint256"
        }
      ],
      "stateMutability": "view",
      "type": "function"
    },
    {
      "inputs": [],
      "name": "owner",
      "outputs": [
        {
          "internalType": "address",
          "name": "",
          "type": "address"
        }
      ],
      "stateMutability": "view",
      "type": "function"
    },
    {
      "inputs": [
        {
          "internalType": "uint256",
          "name": "",
          "type": "uint256"
        }
      ],
      "name": "receivedMessages",
      "outputs": [
        {
          "internalType": "bytes32",
          "name": "",
          "type": "bytes32"
        }
      ],
      "stateMutability": "view",
      "type": "function"
    },
    {
      "inputs": [
        {
          "internalType": "uint64",
          "name": "destinationChainSelector",
          "type": "uint64"
        },
        {
          "internalType": "address",
          "name": "receiver",
          "type": "address"
        },
        {
          "internalType": "address",
          "name": "tokenToTransfer",
          "type": "address"
        },
        {
          "internalType": "uint256",
          "name": "transferAmount",
          "type": "uint256"
        }
      ],
      "name": "sendMessage",
      "outputs": [
        {
          "internalType": "bytes32",
          "name": "messageId",
          "type": "bytes32"
        }
      ],
      "stateMutability": "nonpayable",
      "type": "function"
    },
    {
      "inputs": [
        {
          "internalType": "bytes4",
          "name": "interfaceId",
          "type": "bytes4"
        }
      ],
      "name": "supportsInterface",
      "outputs": [
        {
          "internalType": "bool",
          "name": "",
          "type": "bool"
        }
      ],
      "stateMutability": "pure",
      "type": "function"
    },
    {
      "inputs": [
        {
          "internalType": "address",
          "name": "to",
          "type": "address"
        }
      ],
      "name": "transferOwnership",
      "outputs": [],
      "stateMutability": "nonpayable",
      "type": "function"
    },
    {
      "inputs": [
        {
          "internalType": "address",
          "name": "token",
          "type": "address"
        }
      ],
      "name": "transferTokensToContract",
      "outputs": [],
      "stateMutability": "payable",
      "type": "function"
    },
    {
      "inputs": [],
      "name": "withdraw",
      "outputs": [],
      "stateMutability": "nonpayable",
      "type": "function"
    },
    {
      "inputs": [
        {
          "internalType": "address",
          "name": "token",
          "type": "address"
        }
      ],
      "name": "withdrawToken",
      "outputs": [],
      "stateMutability": "nonpayable",
      "type": "function"
    },
    {
      "stateMutability": "payable",
      "type": "receive"
    }
  ],
  "bytecode": "0x60a06040523480156200001157600080fd5b5060405162001e7d38038062001e7d8339810160408190526200003491620001ee565b33806000846001600160a01b03811662000069576040516335fdcccd60e21b8152600060048201526024015b60405180910390fd5b6001600160a01b039081166080528216620000c75760405162461bcd60e51b815260206004820152601860248201527f43616e6e6f7420736574206f776e657220746f207a65726f0000000000000000604482015260640162000060565b600080546001600160a01b0319166001600160a01b0384811691909117909155811615620000fa57620000fa8162000126565b5050600580546001600160a01b0319166001600160a01b03939093169290921790915550620002269050565b336001600160a01b03821603620001805760405162461bcd60e51b815260206004820152601760248201527f43616e6e6f74207472616e7366657220746f2073656c66000000000000000000604482015260640162000060565b600180546001600160a01b0319166001600160a01b0383811691821790925560008054604051929316917fed8889f560326eb138920d842192f0eb3dd22b4f139c87a2c57538e05bae12789190a350565b80516001600160a01b0381168114620001e957600080fd5b919050565b600080604083850312156200020257600080fd5b6200020d83620001d1565b91506200021d60208401620001d1565b90509250929050565b608051611c3462000249600039600081816103c10152610ddc0152611c346000f3fe60806040526004361061012d5760003560e01c80638da5cb5b116100a5578063b0f479a111610074578063d0e30db011610059578063d0e30db014610405578063f2fde38b1461040d578063fc7e286d1461042d57600080fd5b8063b0f479a1146103b2578063d030366c146103e557600080fd5b80638da5cb5b146102a15780639c3ddb2e146102d3578063a48a90581461037f578063a526d3aa1461039f57600080fd5b80637228ea74116100fc5780637e2038e5116100e15780637e2038e51461024157806385572ffb14610261578063894760691461028157600080fd5b80637228ea74146101fe57806379ba50971461022c57600080fd5b806301ffc9a7146101395780630b652d6d1461016e578063263596a51461018d5780633ccfd60b146101e757600080fd5b3661013457005b600080fd5b34801561014557600080fd5b5061015961015436600461159e565b610479565b60405190151581526020015b60405180910390f35b34801561017a57600080fd5b506002545b604051908152602001610165565b34801561019957600080fd5b506101a2610512565b6040805196875267ffffffffffffffff90951660208701526001600160a01b0393841694860194909452908216606085015216608083015260a082015260c001610165565b3480156101f357600080fd5b506101fc610608565b005b34801561020a57600080fd5b5061021e610219366004611619565b6106a6565b604051610165929190611761565b34801561023857600080fd5b506101fc6108ed565b34801561024d57600080fd5b5061017f61025c36600461177a565b6109ab565b34801561026d57600080fd5b506101fc61027c3660046117c9565b610dd1565b34801561028d57600080fd5b506101fc61029c366004611804565b610e49565b3480156102ad57600080fd5b506000546001600160a01b03165b6040516001600160a01b039091168152602001610165565b3480156102df57600080fd5b5061033d6102ee366004611821565b6003602081905260009182526040909120805460018201546002830154929093015467ffffffffffffffff8216936001600160a01b036801000000000000000090930483169390831692169085565b6040805167ffffffffffffffff90961686526001600160a01b03948516602087015292841692850192909252919091166060830152608082015260a001610165565b34801561038b57600080fd5b5061015961039a36600461183a565b610f67565b6101fc6103ad366004611804565b611058565b3480156103be57600080fd5b507f00000000000000000000000000000000000000000000000000000000000000006102bb565b3480156103f157600080fd5b5061017f610400366004611821565b611189565b6101fc6111aa565b34801561041957600080fd5b506101fc610428366004611804565b6111b6565b34801561043957600080fd5b50610464610448366004611804565b6004602052600090815260409020805460019091015460ff1682565b60408051928352901515602083015201610165565b60007fffffffff0000000000000000000000000000000000000000000000000000000082167f85572ffb00000000000000000000000000000000000000000000000000000000148061050c57507fffffffff0000000000000000000000000000000000000000000000000000000082167f01ffc9a700000000000000000000000000000000000000000000000000000000145b92915050565b60008060008060008060028054905060000361055a576040517f6ad69dd500000000000000000000000000000000000000000000000000000000815260040160405180910390fd5b6002805461056a9060019061186b565b8154811061057a5761057a61187e565b6000918252602080832091909101548083526003808352604093849020845160a081018652815467ffffffffffffffff8116808352680100000000000000009091046001600160a01b03908116968301879052600184015481169783018890526002840154166060830181905292909301546080909101819052929b919a5092985092965090945092509050565b6106106111c7565b6040514790600090339083908381818185875af1925050503d8060008114610654576040519150601f19603f3d011682016040523d82523d6000602084013e610659565b606091505b50509050806106a2576040517f0cd90037000000000000000000000000000000000000000000000000000000008152336004820152602481018390526044015b60405180910390fd5b5050565b60006106e36040518060a0016040528060608152602001606081526020016060815260200160006001600160a01b03168152602001606081525090565b6040805160a081019091526001600160a01b03841660c08201528060e0810160405160208183030381529060405281526020013360405160200161073691906001600160a01b0391909116815260200190565b60408051601f198184030181529190528152602001600060405190808252806020026020018201604052801561079257816020015b604080518082019091526000808252602082015281526020019060019003908161076b5790505b5081526000602080830182905260408051808201825262030d408082529083019384528151602481019190915292511515604480850191909152815180850390910181526064909301815290820180517bffffffffffffffffffffffffffffffffffffffffffffffffffffffff166397a657c960e01b179052909101908152509050306001600160a01b031663b0f479a16040518163ffffffff1660e01b8152600401602060405180830381865afa158015610852573d6000803e3d6000fd5b505050506040513d601f19601f8201168201806040525081019061087691906118aa565b6001600160a01b03166320487ded85836040518363ffffffff1660e01b81526004016108a39291906118c7565b602060405180830381865afa1580156108c0573d6000803e3d6000fd5b505050506040513d601f19601f820116820180604052508101906108e491906118ea565b91509250929050565b6001546001600160a01b031633146109475760405162461bcd60e51b815260206004820152601660248201527f4d7573742062652070726f706f736564206f776e6572000000000000000000006044820152606401610699565b600080543373ffffffffffffffffffffffffffffffffffffffff19808316821784556001805490911690556040516001600160a01b0390921692909183917f8be0079c531659141344cd1fd0a4f28419497f9722a3daafe3b4186f6b6457e091a350565b6040805180820182526001600160a01b0384168152602080820184905282516001808252818501909452600093849282015b60408051808201909152600080825260208201528152602001906001900390816109dd5790505090508181600081518110610a1a57610a1a61187e565b6020026020010181905250600033604051602001610a4791906001600160a01b0391909116815260200190565b60408051808303601f1901815260a083019091526001600160a01b03891660c083015291506000908060e0810160408051601f1981840301815291815290825260208281018690528282018790526005546001600160a01b03166060840152815180830190925262030d408252600090820152608090910190610b23906040805182516024820152602092830151151560448083019190915282518083039091018152606490910190915290810180517bffffffffffffffffffffffffffffffffffffffffffffffffffffffff166397a657c960e01b17905290565b81525090506000306001600160a01b031663b0f479a16040518163ffffffff1660e01b8152600401602060405180830381865afa158015610b68573d6000803e3d6000fd5b505050506040513d601f19601f82011682018060405250810190610b8c91906118aa565b90506000816001600160a01b03166320487ded8c856040518363ffffffff1660e01b8152600401610bbe9291906118c7565b602060405180830381865afa158015610bdb573d6000803e3d6000fd5b505050506040513d601f19601f82011682018060405250810190610bff91906118ea565b60055460405163095ea7b360e01b81526001600160a01b0385811660048301526024820184905292935091169063095ea7b3906044016020604051808303816000875af1158015610c54573d6000803e3d6000fd5b505050506040513d601f19601f82011682018060405250810190610c789190611903565b5060405163095ea7b360e01b81526001600160a01b038381166004830152602482018a90528a169063095ea7b3906044016020604051808303816000875af1158015610cc8573d6000803e3d6000fd5b505050506040513d601f19601f82011682018060405250810190610cec9190611903565b506040517f96f4e9f90000000000000000000000000000000000000000000000000000000081526001600160a01b038316906396f4e9f990610d34908e9087906004016118c7565b6020604051808303816000875af1158015610d53573d6000803e3d6000fd5b505050506040513d601f19601f82011682018060405250810190610d7791906118ea565b96508a67ffffffffffffffff16877f2203b02ed2b5012803d6fecd082627e1cf6906cbfc26b50528c0c8bdc3a326468c338a86604051610dba9493929190611925565b60405180910390a35050505050505b949350505050565b336001600160a01b037f00000000000000000000000000000000000000000000000000000000000000001614610e35576040517fd7f73334000000000000000000000000000000000000000000000000000000008152336004820152602401610699565b610e46610e4182611b06565b611221565b50565b610e516111c7565b6040517f70a082310000000000000000000000000000000000000000000000000000000081523060048201526000906001600160a01b038316906370a0823190602401602060405180830381865afa158015610eb1573d6000803e3d6000fd5b505050506040513d601f19601f82011682018060405250810190610ed591906118ea565b6040517fa9059cbb000000000000000000000000000000000000000000000000000000008152336004820152602481018290529091506001600160a01b0383169063a9059cbb906044016020604051808303816000875af1158015610f3e573d6000803e3d6000fd5b505050506040513d601f19601f82011682018060405250810190610f629190611903565b505050565b6000306001600160a01b031663b0f479a16040518163ffffffff1660e01b8152600401602060405180830381865afa158015610fa7573d6000803e3d6000fd5b505050506040513d601f19601f82011682018060405250810190610fcb91906118aa565b6040517fa48a905800000000000000000000000000000000000000000000000000000000815267ffffffffffffffff841660048201526001600160a01b03919091169063a48a905890602401602060405180830381865afa158015611034573d6000803e3d6000fd5b505050506040513d601f19601f8201168201806040525081019061050c9190611903565b600034116110a85760405162461bcd60e51b815260206004820152601d60248201527f416d6f756e74206d7573742062652067726561746572207468616e20300000006044820152606401610699565b6040517f23b872dd0000000000000000000000000000000000000000000000000000000081523360048201523060248201523460448201526000906001600160a01b038316906323b872dd906064016020604051808303816000875af1158015611116573d6000803e3d6000fd5b505050506040513d601f19601f8201168201806040525081019061113a9190611903565b9050806106a25760405162461bcd60e51b815260206004820152601560248201527f546f6b656e207472616e73666572206661696c656400000000000000000000006044820152606401610699565b6002818154811061119957600080fd5b600091825260209091200154905081565b6111b4333461146e565b565b6111be6111c7565b610e46816114e8565b6000546001600160a01b031633146111b45760405162461bcd60e51b815260206004820152601660248201527f4f6e6c792063616c6c61626c65206279206f776e6572000000000000000000006044820152606401610699565b805160208083015160408401518051919260009261124592908101820191016118aa565b90506000846060015180602001905181019061126191906118aa565b90506000856080015190506000816000815181106112815761128161187e565b60200260200101516000015190506000826000815181106112a4576112a461187e565b6020026020010151602001519050600287908060018154018082558091505060019003906000526020600020016000909190919091505560006040518060a001604052808867ffffffffffffffff168152602001876001600160a01b03168152602001866001600160a01b03168152602001846001600160a01b0316815260200183815250905080600360008a815260200190815260200160002060008201518160000160006101000a81548167ffffffffffffffff021916908367ffffffffffffffff16021790555060208201518160000160086101000a8154816001600160a01b0302191690836001600160a01b0316021790555060408201518160010160006101000a8154816001600160a01b0302191690836001600160a01b0316021790555060608201518160020160006101000a8154816001600160a01b0302191690836001600160a01b03160217905550608082015181600301559050508667ffffffffffffffff16887fb8387be1e3a7f6676cc5eb93b06b8912fd99545cd542e6296b2db1d0fd82cacd8888886000815181106114445761144461187e565b602002602001015160405161145b93929190611bb3565b60405180910390a3505050505050505050565b6001600160a01b03821660009081526004602052604081208054839290611496908490611beb565b90915550506001600160a01b03821660009081526004602052604090206001015460ff166106a257506001600160a01b031660009081526004602052604090206001908101805460ff19169091179055565b336001600160a01b038216036115405760405162461bcd60e51b815260206004820152601760248201527f43616e6e6f74207472616e7366657220746f2073656c660000000000000000006044820152606401610699565b6001805473ffffffffffffffffffffffffffffffffffffffff19166001600160a01b0383811691821790925560008054604051929316917fed8889f560326eb138920d842192f0eb3dd22b4f139c87a2c57538e05bae12789190a350565b6000602082840312156115b057600080fd5b81357fffffffff00000000000000000000000000000000000000000000000000000000811681146115e057600080fd5b9392505050565b803567ffffffffffffffff811681146115ff57600080fd5b919050565b6001600160a01b0381168114610e4657600080fd5b6000806040838503121561162c57600080fd5b611635836115e7565b9150602083013561164581611604565b809150509250929050565b6000815180845260005b818110156116765760208185018101518683018201520161165a565b506000602082860101526020601f19601f83011685010191505092915050565b6000815160a084526116ab60a0850182611650565b9050602080840151858303828701526116c48382611650565b60408681015188830389830152805180845290850195509092506000918401905b8083101561171f5761170b82875180516001600160a01b03168252602090810151910152565b9484019460019290920191908301906116e5565b506060870151945061173c60608901866001600160a01b03169052565b6080870151945087810360808901526117558186611650565b98975050505050505050565b828152604060208201526000610dc96040830184611696565b6000806000806080858703121561179057600080fd5b611799856115e7565b935060208501356117a981611604565b925060408501356117b981611604565b9396929550929360600135925050565b6000602082840312156117db57600080fd5b813567ffffffffffffffff8111156117f257600080fd5b820160a081850312156115e057600080fd5b60006020828403121561181657600080fd5b81356115e081611604565b60006020828403121561183357600080fd5b5035919050565b60006020828403121561184c57600080fd5b6115e0826115e7565b634e487b7160e01b600052601160045260246000fd5b8181038181111561050c5761050c611855565b634e487b7160e01b600052603260045260246000fd5b634e487b7160e01b600052604160045260246000fd5b6000602082840312156118bc57600080fd5b81516115e081611604565b67ffffffffffffffff83168152604060208201526000610dc96040830184611696565b6000602082840312156118fc57600080fd5b5051919050565b60006020828403121561191557600080fd5b815180151581146115e057600080fd5b6001600160a01b0385811682528416602082015260a0810161195d604083018580516001600160a01b03168252602090810151910152565b82608083015295945050505050565b6040805190810167ffffffffffffffff8111828210171561198f5761198f611894565b60405290565b60405160a0810167ffffffffffffffff8111828210171561198f5761198f611894565b604051601f8201601f1916810167ffffffffffffffff811182821017156119e1576119e1611894565b604052919050565b600082601f8301126119fa57600080fd5b813567ffffffffffffffff811115611a1457611a14611894565b611a27601f8201601f19166020016119b8565b818152846020838601011115611a3c57600080fd5b816020850160208301376000918101602001919091529392505050565b600082601f830112611a6a57600080fd5b8135602067ffffffffffffffff821115611a8657611a86611894565b611a94818360051b016119b8565b82815260069290921b84018101918181019086841115611ab357600080fd5b8286015b84811015611afb5760408189031215611ad05760008081fd5b611ad861196c565b8135611ae381611604565b81528185013585820152835291830191604001611ab7565b509695505050505050565b600060a08236031215611b1857600080fd5b611b20611995565b82358152611b30602084016115e7565b6020820152604083013567ffffffffffffffff80821115611b5057600080fd5b611b5c368387016119e9565b60408401526060850135915080821115611b7557600080fd5b611b81368387016119e9565b60608401526080850135915080821115611b9a57600080fd5b50611ba736828601611a59565b60808301525092915050565b6001600160a01b0384811682528316602082015260808101610dc9604083018480516001600160a01b03168252602090810151910152565b8082018082111561050c5761050c61185556fea264697066735822122016d91bd4b1031b207e759e663f1d89f240c43b69bbd4b928780abac8eca2598764736f6c63430008130033",
  "linkReferences": {},
  "deployedLinkReferences": {}
}