{
  "_format": "hh-sol-artifact-1",
  "contractName": "Sender",
  "sourceName": "contracts/Sender.sol",
  "abi": [
    {
      "inputs": [
        {
          "internalType": "address",
          "name": "_router",
          "type": "address"
        },
        {
          "internalType": "address",
          "name": "link",
          "type": "address"
        }
      ],
      "stateMutability": "nonpayable",
      "type": "constructor"
    },
    {
      "inputs": [
        {
          "internalType": "address",
          "name": "owner",
          "type": "address"
        },
        {
          "internalType": "uint256",
          "name": "value",
          "type": "uint256"
        }
      ],
      "name": "FailedToWithdrawEth",
      "type": "error"
    },
    {
      "inputs": [
        {
          "internalType": "uint256",
          "name": "providedIndex",
          "type": "uint256"
        },
        {
          "internalType": "uint256",
          "name": "maxIndex",
          "type": "uint256"
        }
      ],
      "name": "IndexOutOfBound",
      "type": "error"
    },
    {
      "inputs": [
        {
          "internalType": "address",
          "name": "router",
          "type": "address"
        }
      ],
      "name": "InvalidRouter",
      "type": "error"
    },
    {
      "inputs": [
        {
          "internalType": "bytes32",
          "name": "messageId",
          "type": "bytes32"
        }
      ],
      "name": "MessageIdNotExist",
      "type": "error"
    },
    {
      "inputs": [
        {
          "internalType": "address",
          "name": "msgSender",
          "type": "address"
        },
        {
          "internalType": "bool",
          "name": "locked",
          "type": "bool"
        }
      ],
      "name": "NoFundsLocked",
      "type": "error"
    },
    {
      "inputs": [],
      "name": "NoMessageReceived",
      "type": "error"
    },
    {
      "inputs": [
        {
          "internalType": "uint256",
          "name": "",
          "type": "uint256"
        },
        {
          "internalType": "uint256",
          "name": "",
          "type": "uint256"
        }
      ],
      "name": "NotEnoughBalance",
      "type": "error"
    },
    {
      "inputs": [],
      "name": "NothingToWithdraw",
      "type": "error"
    },
    {
      "anonymous": false,
      "inputs": [
        {
          "indexed": true,
          "internalType": "bytes32",
          "name": "messageId",
          "type": "bytes32"
        },
        {
          "indexed": true,
          "internalType": "uint64",
          "name": "sourceChainSelector",
          "type": "uint64"
        },
        {
          "indexed": false,
          "internalType": "address",
          "name": "sender",
          "type": "address"
        },
        {
          "indexed": false,
          "internalType": "address",
          "name": "borrower",
          "type": "address"
        },
        {
          "components": [
            {
              "internalType": "address",
              "name": "token",
              "type": "address"
            },
            {
              "internalType": "uint256",
              "name": "amount",
              "type": "uint256"
            }
          ],
          "indexed": false,
          "internalType": "struct Client.EVMTokenAmount",
          "name": "tokenAmount",
          "type": "tuple"
        }
      ],
      "name": "MessageReceived",
      "type": "event"
    },
    {
      "anonymous": false,
      "inputs": [
        {
          "indexed": true,
          "internalType": "bytes32",
          "name": "messageId",
          "type": "bytes32"
        },
        {
          "indexed": true,
          "internalType": "uint64",
          "name": "destinationChainSelector",
          "type": "uint64"
        },
        {
          "indexed": false,
          "internalType": "address",
          "name": "receiver",
          "type": "address"
        },
        {
          "indexed": false,
          "internalType": "address",
          "name": "depositor",
          "type": "address"
        },
        {
          "components": [
            {
              "internalType": "address",
              "name": "token",
              "type": "address"
            },
            {
              "internalType": "uint256",
              "name": "amount",
              "type": "uint256"
            }
          ],
          "indexed": false,
          "internalType": "struct Client.EVMTokenAmount",
          "name": "tokenAmount",
          "type": "tuple"
        },
        {
          "indexed": false,
          "internalType": "uint256",
          "name": "fees",
          "type": "uint256"
        }
      ],
      "name": "MessageSent",
      "type": "event"
    },
    {
      "anonymous": false,
      "inputs": [
        {
          "indexed": true,
          "internalType": "address",
          "name": "from",
          "type": "address"
        },
        {
          "indexed": true,
          "internalType": "address",
          "name": "to",
          "type": "address"
        }
      ],
      "name": "OwnershipTransferRequested",
      "type": "event"
    },
    {
      "anonymous": false,
      "inputs": [
        {
          "indexed": true,
          "internalType": "address",
          "name": "from",
          "type": "address"
        },
        {
          "indexed": true,
          "internalType": "address",
          "name": "to",
          "type": "address"
        }
      ],
      "name": "OwnershipTransferred",
      "type": "event"
    },
    {
      "inputs": [],
      "name": "acceptOwnership",
      "outputs": [],
      "stateMutability": "nonpayable",
      "type": "function"
    },
    {
      "inputs": [
        {
          "components": [
            {
              "internalType": "bytes32",
              "name": "messageId",
              "type": "bytes32"
            },
            {
              "internalType": "uint64",
              "name": "sourceChainSelector",
              "type": "uint64"
            },
            {
              "internalType": "bytes",
              "name": "sender",
              "type": "bytes"
            },
            {
              "internalType": "bytes",
              "name": "data",
              "type": "bytes"
            },
            {
              "components": [
                {
                  "internalType": "address",
                  "name": "token",
                  "type": "address"
                },
                {
                  "internalType": "uint256",
                  "name": "amount",
                  "type": "uint256"
                }
              ],
              "internalType": "struct Client.EVMTokenAmount[]",
              "name": "destTokenAmounts",
              "type": "tuple[]"
            }
          ],
          "internalType": "struct Client.Any2EVMMessage",
          "name": "message",
          "type": "tuple"
        }
      ],
      "name": "ccipReceive",
      "outputs": [],
      "stateMutability": "nonpayable",
      "type": "function"
    },
    {
      "inputs": [],
      "name": "deposit",
      "outputs": [],
      "stateMutability": "payable",
      "type": "function"
    },
    {
      "inputs": [
        {
          "internalType": "address",
          "name": "",
          "type": "address"
        }
      ],
      "name": "deposits",
      "outputs": [
        {
          "internalType": "uint256",
          "name": "amount",
          "type": "uint256"
        },
        {
          "internalType": "bool",
          "name": "locked",
          "type": "bool"
        }
      ],
      "stateMutability": "view",
      "type": "function"
    },
    {
      "inputs": [],
      "name": "getLastReceivedMessageDetails",
      "outputs": [
        {
          "internalType": "bytes32",
          "name": "messageId",
          "type": "bytes32"
        },
        {
          "internalType": "uint64",
          "name": "",
          "type": "uint64"
        },
        {
          "internalType": "address",
          "name": "",
          "type": "address"
        },
        {
          "internalType": "address",
          "name": "",
          "type": "address"
        },
        {
          "internalType": "address",
          "name": "",
          "type": "address"
        },
        {
          "internalType": "uint256",
          "name": "",
          "type": "uint256"
        }
      ],
      "stateMutability": "view",
      "type": "function"
    },
    {
      "inputs": [],
      "name": "getNumberOfReceivedMessages",
      "outputs": [
        {
          "internalType": "uint256",
          "name": "number",
          "type": "uint256"
        }
      ],
      "stateMutability": "view",
      "type": "function"
    },
    {
      "inputs": [],
      "name": "getRouter",
      "outputs": [
        {
          "internalType": "address",
          "name": "",
          "type": "address"
        }
      ],
      "stateMutability": "view",
      "type": "function"
    },
    {
      "inputs": [
        {
          "internalType": "uint64",
          "name": "destinationChainSelector",
          "type": "uint64"
        },
        {
          "internalType": "address",
          "name": "receiver",
          "type": "address"
        }
      ],
      "name": "getSendFees",
      "outputs": [
        {
          "internalType": "uint256",
          "name": "fees",
          "type": "uint256"
        },
        {
          "components": [
            {
              "internalType": "bytes",
              "name": "receiver",
              "type": "bytes"
            },
            {
              "internalType": "bytes",
              "name": "data",
              "type": "bytes"
            },
            {
              "components": [
                {
                  "internalType": "address",
                  "name": "token",
                  "type": "address"
                },
                {
                  "internalType": "uint256",
                  "name": "amount",
                  "type": "uint256"
                }
              ],
              "internalType": "struct Client.EVMTokenAmount[]",
              "name": "tokenAmounts",
              "type": "tuple[]"
            },
            {
              "internalType": "address",
              "name": "feeToken",
              "type": "address"
            },
            {
              "internalType": "bytes",
              "name": "extraArgs",
              "type": "bytes"
            }
          ],
          "internalType": "struct Client.EVM2AnyMessage",
          "name": "message",
          "type": "tuple"
        }
      ],
      "stateMutability": "view",
      "type": "function"
    },
    {
      "inputs": [
        {
          "internalType": "uint64",
          "name": "destChainSelector",
          "type": "uint64"
        }
      ],
      "name": "isChainSupported",
      "outputs": [
        {
          "internalType": "bool",
          "name": "supported",
          "type": "bool"
        }
      ],
      "stateMutability": "view",
      "type": "function"
    },
    {
      "inputs": [
        {
          "internalType": "bytes32",
          "name": "",
          "type": "bytes32"
        }
      ],
      "name": "messageDetail",
      "outputs": [
        {
          "internalType": "uint64",
          "name": "sourceChainSelector",
          "type": "uint64"
        },
        {
          "internalType": "address",
          "name": "sender",
          "type": "address"
        },
        {
          "internalType": "address",
          "name": "borrower",
          "type": "address"
        },
        {
          "internalType": "address",
          "name": "token",
          "type": "address"
        },
        {
          "internalType": "uint256",
          "name": "amount",
          "type": "uint256"
        }
      ],
      "stateMutability": "view",
      "type": "function"
    },
    {
      "inputs": [],
      "name": "owner",
      "outputs": [
        {
          "internalType": "address",
          "name": "",
          "type": "address"
        }
      ],
      "stateMutability": "view",
      "type": "function"
    },
    {
      "inputs": [
        {
          "internalType": "uint256",
          "name": "",
          "type": "uint256"
        }
      ],
      "name": "receivedMessages",
      "outputs": [
        {
          "internalType": "bytes32",
          "name": "",
          "type": "bytes32"
        }
      ],
      "stateMutability": "view",
      "type": "function"
    },
    {
      "inputs": [
        {
          "internalType": "uint64",
          "name": "destinationChainSelector",
          "type": "uint64"
        },
        {
          "internalType": "address",
          "name": "receiver",
          "type": "address"
        },
        {
          "internalType": "address",
          "name": "tokenToTransfer",
          "type": "address"
        },
        {
          "internalType": "uint256",
          "name": "transferAmount",
          "type": "uint256"
        }
      ],
      "name": "sendMessage",
      "outputs": [
        {
          "internalType": "bytes32",
          "name": "messageId",
          "type": "bytes32"
        }
      ],
      "stateMutability": "nonpayable",
      "type": "function"
    },
    {
      "inputs": [
        {
          "internalType": "bytes4",
          "name": "interfaceId",
          "type": "bytes4"
        }
      ],
      "name": "supportsInterface",
      "outputs": [
        {
          "internalType": "bool",
          "name": "",
          "type": "bool"
        }
      ],
      "stateMutability": "pure",
      "type": "function"
    },
    {
      "inputs": [
        {
          "internalType": "address",
          "name": "to",
          "type": "address"
        }
      ],
      "name": "transferOwnership",
      "outputs": [],
      "stateMutability": "nonpayable",
      "type": "function"
    },
    {
      "inputs": [],
      "name": "withdraw",
      "outputs": [],
      "stateMutability": "nonpayable",
      "type": "function"
    },
    {
      "inputs": [
        {
          "internalType": "address",
          "name": "token",
          "type": "address"
        }
      ],
      "name": "withdrawToken",
      "outputs": [],
      "stateMutability": "nonpayable",
      "type": "function"
    },
    {
      "stateMutability": "payable",
      "type": "receive"
    }
  ],
  "bytecode": "0x60a06040523480156200001157600080fd5b5060405162001d1e38038062001d1e8339810160408190526200003491620001ee565b33806000846001600160a01b03811662000069576040516335fdcccd60e21b8152600060048201526024015b60405180910390fd5b6001600160a01b039081166080528216620000c75760405162461bcd60e51b815260206004820152601860248201527f43616e6e6f7420736574206f776e657220746f207a65726f0000000000000000604482015260640162000060565b600080546001600160a01b0319166001600160a01b0384811691909117909155811615620000fa57620000fa8162000126565b5050600580546001600160a01b0319166001600160a01b03939093169290921790915550620002269050565b336001600160a01b03821603620001805760405162461bcd60e51b815260206004820152601760248201527f43616e6e6f74207472616e7366657220746f2073656c66000000000000000000604482015260640162000060565b600180546001600160a01b0319166001600160a01b0383811691821790925560008054604051929316917fed8889f560326eb138920d842192f0eb3dd22b4f139c87a2c57538e05bae12789190a350565b80516001600160a01b0381168114620001e957600080fd5b919050565b600080604083850312156200020257600080fd5b6200020d83620001d1565b91506200021d60208401620001d1565b90509250929050565b608051611ad562000249600039600081816103930152610dae0152611ad56000f3fe6080604052600436106101125760003560e01c806389476069116100a5578063b0f479a111610074578063d0e30db011610059578063d0e30db0146103d7578063f2fde38b146103df578063fc7e286d146103ff57600080fd5b8063b0f479a114610384578063d030366c146103b757600080fd5b806389476069146102665780638da5cb5b146102865780639c3ddb2e146102b8578063a48a90581461036457600080fd5b80637228ea74116100e15780637228ea74146101e357806379ba5097146102115780637e2038e51461022657806385572ffb1461024657600080fd5b806301ffc9a71461011e5780630b652d6d14610153578063263596a5146101725780633ccfd60b146101cc57600080fd5b3661011957005b600080fd5b34801561012a57600080fd5b5061013e61013936600461143f565b61044b565b60405190151581526020015b60405180910390f35b34801561015f57600080fd5b506002545b60405190815260200161014a565b34801561017e57600080fd5b506101876104e4565b6040805196875267ffffffffffffffff90951660208701526001600160a01b0393841694860194909452908216606085015216608083015260a082015260c00161014a565b3480156101d857600080fd5b506101e16105da565b005b3480156101ef57600080fd5b506102036101fe3660046114ba565b610678565b60405161014a929190611602565b34801561021d57600080fd5b506101e16108bf565b34801561023257600080fd5b5061016461024136600461161b565b61097d565b34801561025257600080fd5b506101e161026136600461166a565b610da3565b34801561027257600080fd5b506101e16102813660046116a5565b610e1b565b34801561029257600080fd5b506000546001600160a01b03165b6040516001600160a01b03909116815260200161014a565b3480156102c457600080fd5b506103226102d33660046116c2565b6003602081905260009182526040909120805460018201546002830154929093015467ffffffffffffffff8216936001600160a01b036801000000000000000090930483169390831692169085565b6040805167ffffffffffffffff90961686526001600160a01b03948516602087015292841692850192909252919091166060830152608082015260a00161014a565b34801561037057600080fd5b5061013e61037f3660046116db565b610f39565b34801561039057600080fd5b507f00000000000000000000000000000000000000000000000000000000000000006102a0565b3480156103c357600080fd5b506101646103d23660046116c2565b61102a565b6101e161104b565b3480156103eb57600080fd5b506101e16103fa3660046116a5565b611057565b34801561040b57600080fd5b5061043661041a3660046116a5565b6004602052600090815260409020805460019091015460ff1682565b6040805192835290151560208301520161014a565b60007fffffffff0000000000000000000000000000000000000000000000000000000082167f85572ffb0000000000000000000000000000000000000000000000000000000014806104de57507fffffffff0000000000000000000000000000000000000000000000000000000082167f01ffc9a700000000000000000000000000000000000000000000000000000000145b92915050565b60008060008060008060028054905060000361052c576040517f6ad69dd500000000000000000000000000000000000000000000000000000000815260040160405180910390fd5b6002805461053c9060019061170c565b8154811061054c5761054c61171f565b6000918252602080832091909101548083526003808352604093849020845160a081018652815467ffffffffffffffff8116808352680100000000000000009091046001600160a01b03908116968301879052600184015481169783018890526002840154166060830181905292909301546080909101819052929b919a5092985092965090945092509050565b6105e2611068565b6040514790600090339083908381818185875af1925050503d8060008114610626576040519150601f19603f3d011682016040523d82523d6000602084013e61062b565b606091505b5050905080610674576040517f0cd90037000000000000000000000000000000000000000000000000000000008152336004820152602481018390526044015b60405180910390fd5b5050565b60006106b56040518060a0016040528060608152602001606081526020016060815260200160006001600160a01b03168152602001606081525090565b6040805160a081019091526001600160a01b03841660c08201528060e0810160405160208183030381529060405281526020013360405160200161070891906001600160a01b0391909116815260200190565b60408051601f198184030181529190528152602001600060405190808252806020026020018201604052801561076457816020015b604080518082019091526000808252602082015281526020019060019003908161073d5790505b5081526000602080830182905260408051808201825262030d408082529083019384528151602481019190915292511515604480850191909152815180850390910181526064909301815290820180517bffffffffffffffffffffffffffffffffffffffffffffffffffffffff166397a657c960e01b179052909101908152509050306001600160a01b031663b0f479a16040518163ffffffff1660e01b8152600401602060405180830381865afa158015610824573d6000803e3d6000fd5b505050506040513d601f19601f82011682018060405250810190610848919061174b565b6001600160a01b03166320487ded85836040518363ffffffff1660e01b8152600401610875929190611768565b602060405180830381865afa158015610892573d6000803e3d6000fd5b505050506040513d601f19601f820116820180604052508101906108b6919061178b565b91509250929050565b6001546001600160a01b031633146109195760405162461bcd60e51b815260206004820152601660248201527f4d7573742062652070726f706f736564206f776e657200000000000000000000604482015260640161066b565b600080543373ffffffffffffffffffffffffffffffffffffffff19808316821784556001805490911690556040516001600160a01b0390921692909183917f8be0079c531659141344cd1fd0a4f28419497f9722a3daafe3b4186f6b6457e091a350565b6040805180820182526001600160a01b0384168152602080820184905282516001808252818501909452600093849282015b60408051808201909152600080825260208201528152602001906001900390816109af57905050905081816000815181106109ec576109ec61171f565b6020026020010181905250600033604051602001610a1991906001600160a01b0391909116815260200190565b60408051808303601f1901815260a083019091526001600160a01b03891660c083015291506000908060e0810160408051601f1981840301815291815290825260208281018690528282018790526005546001600160a01b03166060840152815180830190925262030d408252600090820152608090910190610af5906040805182516024820152602092830151151560448083019190915282518083039091018152606490910190915290810180517bffffffffffffffffffffffffffffffffffffffffffffffffffffffff166397a657c960e01b17905290565b81525090506000306001600160a01b031663b0f479a16040518163ffffffff1660e01b8152600401602060405180830381865afa158015610b3a573d6000803e3d6000fd5b505050506040513d601f19601f82011682018060405250810190610b5e919061174b565b90506000816001600160a01b03166320487ded8c856040518363ffffffff1660e01b8152600401610b90929190611768565b602060405180830381865afa158015610bad573d6000803e3d6000fd5b505050506040513d601f19601f82011682018060405250810190610bd1919061178b565b60055460405163095ea7b360e01b81526001600160a01b0385811660048301526024820184905292935091169063095ea7b3906044016020604051808303816000875af1158015610c26573d6000803e3d6000fd5b505050506040513d601f19601f82011682018060405250810190610c4a91906117a4565b5060405163095ea7b360e01b81526001600160a01b038381166004830152602482018a90528a169063095ea7b3906044016020604051808303816000875af1158015610c9a573d6000803e3d6000fd5b505050506040513d601f19601f82011682018060405250810190610cbe91906117a4565b506040517f96f4e9f90000000000000000000000000000000000000000000000000000000081526001600160a01b038316906396f4e9f990610d06908e908790600401611768565b6020604051808303816000875af1158015610d25573d6000803e3d6000fd5b505050506040513d601f19601f82011682018060405250810190610d49919061178b565b96508a67ffffffffffffffff16877f2203b02ed2b5012803d6fecd082627e1cf6906cbfc26b50528c0c8bdc3a326468c338a86604051610d8c94939291906117c6565b60405180910390a35050505050505b949350505050565b336001600160a01b037f00000000000000000000000000000000000000000000000000000000000000001614610e07576040517fd7f7333400000000000000000000000000000000000000000000000000000000815233600482015260240161066b565b610e18610e13826119a7565b6110c2565b50565b610e23611068565b6040517f70a082310000000000000000000000000000000000000000000000000000000081523060048201526000906001600160a01b038316906370a0823190602401602060405180830381865afa158015610e83573d6000803e3d6000fd5b505050506040513d601f19601f82011682018060405250810190610ea7919061178b565b6040517fa9059cbb000000000000000000000000000000000000000000000000000000008152336004820152602481018290529091506001600160a01b0383169063a9059cbb906044016020604051808303816000875af1158015610f10573d6000803e3d6000fd5b505050506040513d601f19601f82011682018060405250810190610f3491906117a4565b505050565b6000306001600160a01b031663b0f479a16040518163ffffffff1660e01b8152600401602060405180830381865afa158015610f79573d6000803e3d6000fd5b505050506040513d601f19601f82011682018060405250810190610f9d919061174b565b6040517fa48a905800000000000000000000000000000000000000000000000000000000815267ffffffffffffffff841660048201526001600160a01b03919091169063a48a905890602401602060405180830381865afa158015611006573d6000803e3d6000fd5b505050506040513d601f19601f820116820180604052508101906104de91906117a4565b6002818154811061103a57600080fd5b600091825260209091200154905081565b611055333461130f565b565b61105f611068565b610e1881611389565b6000546001600160a01b031633146110555760405162461bcd60e51b815260206004820152601660248201527f4f6e6c792063616c6c61626c65206279206f776e657200000000000000000000604482015260640161066b565b80516020808301516040840151805191926000926110e6929081018201910161174b565b905060008460600151806020019051810190611102919061174b565b90506000856080015190506000816000815181106111225761112261171f565b60200260200101516000015190506000826000815181106111455761114561171f565b6020026020010151602001519050600287908060018154018082558091505060019003906000526020600020016000909190919091505560006040518060a001604052808867ffffffffffffffff168152602001876001600160a01b03168152602001866001600160a01b03168152602001846001600160a01b0316815260200183815250905080600360008a815260200190815260200160002060008201518160000160006101000a81548167ffffffffffffffff021916908367ffffffffffffffff16021790555060208201518160000160086101000a8154816001600160a01b0302191690836001600160a01b0316021790555060408201518160010160006101000a8154816001600160a01b0302191690836001600160a01b0316021790555060608201518160020160006101000a8154816001600160a01b0302191690836001600160a01b03160217905550608082015181600301559050508667ffffffffffffffff16887fb8387be1e3a7f6676cc5eb93b06b8912fd99545cd542e6296b2db1d0fd82cacd8888886000815181106112e5576112e561171f565b60200260200101516040516112fc93929190611a54565b60405180910390a3505050505050505050565b6001600160a01b03821660009081526004602052604081208054839290611337908490611a8c565b90915550506001600160a01b03821660009081526004602052604090206001015460ff1661067457506001600160a01b031660009081526004602052604090206001908101805460ff19169091179055565b336001600160a01b038216036113e15760405162461bcd60e51b815260206004820152601760248201527f43616e6e6f74207472616e7366657220746f2073656c66000000000000000000604482015260640161066b565b6001805473ffffffffffffffffffffffffffffffffffffffff19166001600160a01b0383811691821790925560008054604051929316917fed8889f560326eb138920d842192f0eb3dd22b4f139c87a2c57538e05bae12789190a350565b60006020828403121561145157600080fd5b81357fffffffff000000000000000000000000000000000000000000000000000000008116811461148157600080fd5b9392505050565b803567ffffffffffffffff811681146114a057600080fd5b919050565b6001600160a01b0381168114610e1857600080fd5b600080604083850312156114cd57600080fd5b6114d683611488565b915060208301356114e6816114a5565b809150509250929050565b6000815180845260005b81811015611517576020818501810151868301820152016114fb565b506000602082860101526020601f19601f83011685010191505092915050565b6000815160a0845261154c60a08501826114f1565b90506020808401518583038287015261156583826114f1565b60408681015188830389830152805180845290850195509092506000918401905b808310156115c0576115ac82875180516001600160a01b03168252602090810151910152565b948401946001929092019190830190611586565b50606087015194506115dd60608901866001600160a01b03169052565b6080870151945087810360808901526115f681866114f1565b98975050505050505050565b828152604060208201526000610d9b6040830184611537565b6000806000806080858703121561163157600080fd5b61163a85611488565b9350602085013561164a816114a5565b9250604085013561165a816114a5565b9396929550929360600135925050565b60006020828403121561167c57600080fd5b813567ffffffffffffffff81111561169357600080fd5b820160a0818503121561148157600080fd5b6000602082840312156116b757600080fd5b8135611481816114a5565b6000602082840312156116d457600080fd5b5035919050565b6000602082840312156116ed57600080fd5b61148182611488565b634e487b7160e01b600052601160045260246000fd5b818103818111156104de576104de6116f6565b634e487b7160e01b600052603260045260246000fd5b634e487b7160e01b600052604160045260246000fd5b60006020828403121561175d57600080fd5b8151611481816114a5565b67ffffffffffffffff83168152604060208201526000610d9b6040830184611537565b60006020828403121561179d57600080fd5b5051919050565b6000602082840312156117b657600080fd5b8151801515811461148157600080fd5b6001600160a01b0385811682528416602082015260a081016117fe604083018580516001600160a01b03168252602090810151910152565b82608083015295945050505050565b6040805190810167ffffffffffffffff8111828210171561183057611830611735565b60405290565b60405160a0810167ffffffffffffffff8111828210171561183057611830611735565b604051601f8201601f1916810167ffffffffffffffff8111828210171561188257611882611735565b604052919050565b600082601f83011261189b57600080fd5b813567ffffffffffffffff8111156118b5576118b5611735565b6118c8601f8201601f1916602001611859565b8181528460208386010111156118dd57600080fd5b816020850160208301376000918101602001919091529392505050565b600082601f83011261190b57600080fd5b8135602067ffffffffffffffff82111561192757611927611735565b611935818360051b01611859565b82815260069290921b8401810191818101908684111561195457600080fd5b8286015b8481101561199c57604081890312156119715760008081fd5b61197961180d565b8135611984816114a5565b81528185013585820152835291830191604001611958565b509695505050505050565b600060a082360312156119b957600080fd5b6119c1611836565b823581526119d160208401611488565b6020820152604083013567ffffffffffffffff808211156119f157600080fd5b6119fd3683870161188a565b60408401526060850135915080821115611a1657600080fd5b611a223683870161188a565b60608401526080850135915080821115611a3b57600080fd5b50611a48368286016118fa565b60808301525092915050565b6001600160a01b0384811682528316602082015260808101610d9b604083018480516001600160a01b03168252602090810151910152565b808201808211156104de576104de6116f656fea2646970667358221220bbf3f5d9acab5ace30521c1d3a2ea453447a985638a40ea722f189a7f95ca58064736f6c63430008130033",
  "linkReferences": {},
  "deployedLinkReferences": {}
}