{
  "_format": "hh-sol-artifact-1",
  "contractName": "WorldWideLinkProtocol",
  "sourceName": "contracts/WorldWideLinkProtocol.sol",
  "abi": [
    {
      "inputs": [
        {
          "internalType": "address",
          "name": "_router",
          "type": "address"
        },
        {
          "internalType": "address",
          "name": "link",
          "type": "address"
        }
      ],
      "stateMutability": "nonpayable",
      "type": "constructor"
    },
    {
      "inputs": [
        {
          "internalType": "address",
          "name": "owner",
          "type": "address"
        },
        {
          "internalType": "uint256",
          "name": "value",
          "type": "uint256"
        }
      ],
      "name": "FailedToWithdrawEth",
      "type": "error"
    },
    {
      "inputs": [
        {
          "internalType": "uint256",
          "name": "providedIndex",
          "type": "uint256"
        },
        {
          "internalType": "uint256",
          "name": "maxIndex",
          "type": "uint256"
        }
      ],
      "name": "IndexOutOfBound",
      "type": "error"
    },
    {
      "inputs": [
        {
          "internalType": "address",
          "name": "router",
          "type": "address"
        }
      ],
      "name": "InvalidRouter",
      "type": "error"
    },
    {
      "inputs": [
        {
          "internalType": "bytes32",
          "name": "messageId",
          "type": "bytes32"
        }
      ],
      "name": "MessageIdNotExist",
      "type": "error"
    },
    {
      "inputs": [],
      "name": "NoMessageReceived",
      "type": "error"
    },
    {
      "inputs": [
        {
          "internalType": "uint256",
          "name": "",
          "type": "uint256"
        },
        {
          "internalType": "uint256",
          "name": "",
          "type": "uint256"
        }
      ],
      "name": "NotEnoughBalance",
      "type": "error"
    },
    {
      "inputs": [],
      "name": "NothingToWithdraw",
      "type": "error"
    },
    {
      "anonymous": false,
      "inputs": [
        {
          "indexed": true,
          "internalType": "bytes32",
          "name": "messageId",
          "type": "bytes32"
        },
        {
          "indexed": true,
          "internalType": "uint64",
          "name": "sourceChainSelector",
          "type": "uint64"
        },
        {
          "indexed": false,
          "internalType": "address",
          "name": "sender",
          "type": "address"
        },
        {
          "indexed": false,
          "internalType": "address",
          "name": "depositor",
          "type": "address"
        },
        {
          "components": [
            {
              "internalType": "address",
              "name": "token",
              "type": "address"
            },
            {
              "internalType": "uint256",
              "name": "amount",
              "type": "uint256"
            }
          ],
          "indexed": false,
          "internalType": "struct Client.EVMTokenAmount",
          "name": "tokenAmount",
          "type": "tuple"
        }
      ],
      "name": "MessageReceived",
      "type": "event"
    },
    {
      "anonymous": false,
      "inputs": [
        {
          "indexed": true,
          "internalType": "bytes32",
          "name": "messageId",
          "type": "bytes32"
        },
        {
          "indexed": true,
          "internalType": "uint64",
          "name": "destinationChainSelector",
          "type": "uint64"
        },
        {
          "indexed": false,
          "internalType": "address",
          "name": "receiver",
          "type": "address"
        },
        {
          "indexed": false,
          "internalType": "address",
          "name": "borrower",
          "type": "address"
        },
        {
          "components": [
            {
              "internalType": "address",
              "name": "token",
              "type": "address"
            },
            {
              "internalType": "uint256",
              "name": "amount",
              "type": "uint256"
            }
          ],
          "indexed": false,
          "internalType": "struct Client.EVMTokenAmount",
          "name": "tokenAmount",
          "type": "tuple"
        },
        {
          "indexed": false,
          "internalType": "uint256",
          "name": "fees",
          "type": "uint256"
        }
      ],
      "name": "MessageSent",
      "type": "event"
    },
    {
      "anonymous": false,
      "inputs": [
        {
          "indexed": true,
          "internalType": "address",
          "name": "from",
          "type": "address"
        },
        {
          "indexed": true,
          "internalType": "address",
          "name": "to",
          "type": "address"
        }
      ],
      "name": "OwnershipTransferRequested",
      "type": "event"
    },
    {
      "anonymous": false,
      "inputs": [
        {
          "indexed": true,
          "internalType": "address",
          "name": "from",
          "type": "address"
        },
        {
          "indexed": true,
          "internalType": "address",
          "name": "to",
          "type": "address"
        }
      ],
      "name": "OwnershipTransferred",
      "type": "event"
    },
    {
      "inputs": [],
      "name": "acceptOwnership",
      "outputs": [],
      "stateMutability": "nonpayable",
      "type": "function"
    },
    {
      "inputs": [
        {
          "internalType": "bytes32",
          "name": "msgId",
          "type": "bytes32"
        }
      ],
      "name": "borrowDAI",
      "outputs": [
        {
          "internalType": "uint256",
          "name": "",
          "type": "uint256"
        }
      ],
      "stateMutability": "nonpayable",
      "type": "function"
    },
    {
      "inputs": [
        {
          "internalType": "bytes32",
          "name": "msgId",
          "type": "bytes32"
        }
      ],
      "name": "borrowUSDC",
      "outputs": [
        {
          "internalType": "uint256",
          "name": "",
          "type": "uint256"
        }
      ],
      "stateMutability": "nonpayable",
      "type": "function"
    },
    {
      "inputs": [
        {
          "internalType": "address",
          "name": "",
          "type": "address"
        },
        {
          "internalType": "address",
          "name": "",
          "type": "address"
        }
      ],
      "name": "borrowings",
      "outputs": [
        {
          "internalType": "uint256",
          "name": "",
          "type": "uint256"
        }
      ],
      "stateMutability": "view",
      "type": "function"
    },
    {
      "inputs": [
        {
          "components": [
            {
              "internalType": "bytes32",
              "name": "messageId",
              "type": "bytes32"
            },
            {
              "internalType": "uint64",
              "name": "sourceChainSelector",
              "type": "uint64"
            },
            {
              "internalType": "bytes",
              "name": "sender",
              "type": "bytes"
            },
            {
              "internalType": "bytes",
              "name": "data",
              "type": "bytes"
            },
            {
              "components": [
                {
                  "internalType": "address",
                  "name": "token",
                  "type": "address"
                },
                {
                  "internalType": "uint256",
                  "name": "amount",
                  "type": "uint256"
                }
              ],
              "internalType": "struct Client.EVMTokenAmount[]",
              "name": "destTokenAmounts",
              "type": "tuple[]"
            }
          ],
          "internalType": "struct Client.Any2EVMMessage",
          "name": "message",
          "type": "tuple"
        }
      ],
      "name": "ccipReceive",
      "outputs": [],
      "stateMutability": "nonpayable",
      "type": "function"
    },
    {
      "inputs": [],
      "name": "daiToken",
      "outputs": [
        {
          "internalType": "contract MockDAI",
          "name": "",
          "type": "address"
        }
      ],
      "stateMutability": "view",
      "type": "function"
    },
    {
      "inputs": [
        {
          "internalType": "address",
          "name": "",
          "type": "address"
        },
        {
          "internalType": "address",
          "name": "",
          "type": "address"
        }
      ],
      "name": "deposits",
      "outputs": [
        {
          "internalType": "uint256",
          "name": "",
          "type": "uint256"
        }
      ],
      "stateMutability": "view",
      "type": "function"
    },
    {
      "inputs": [],
      "name": "getLastReceivedMessageDetails",
      "outputs": [
        {
          "internalType": "bytes32",
          "name": "messageId",
          "type": "bytes32"
        },
        {
          "internalType": "uint64",
          "name": "",
          "type": "uint64"
        },
        {
          "internalType": "address",
          "name": "",
          "type": "address"
        },
        {
          "internalType": "address",
          "name": "",
          "type": "address"
        },
        {
          "internalType": "address",
          "name": "",
          "type": "address"
        },
        {
          "internalType": "uint256",
          "name": "",
          "type": "uint256"
        }
      ],
      "stateMutability": "view",
      "type": "function"
    },
    {
      "inputs": [],
      "name": "getNumberOfReceivedMessages",
      "outputs": [
        {
          "internalType": "uint256",
          "name": "number",
          "type": "uint256"
        }
      ],
      "stateMutability": "view",
      "type": "function"
    },
    {
      "inputs": [
        {
          "internalType": "bytes32",
          "name": "messageId",
          "type": "bytes32"
        }
      ],
      "name": "getReceivedMessageDetails",
      "outputs": [
        {
          "internalType": "uint64",
          "name": "",
          "type": "uint64"
        },
        {
          "internalType": "address",
          "name": "",
          "type": "address"
        },
        {
          "internalType": "address",
          "name": "",
          "type": "address"
        },
        {
          "internalType": "address",
          "name": "token",
          "type": "address"
        },
        {
          "internalType": "uint256",
          "name": "amount",
          "type": "uint256"
        }
      ],
      "stateMutability": "view",
      "type": "function"
    },
    {
      "inputs": [],
      "name": "getRouter",
      "outputs": [
        {
          "internalType": "address",
          "name": "",
          "type": "address"
        }
      ],
      "stateMutability": "view",
      "type": "function"
    },
    {
      "inputs": [
        {
          "internalType": "uint64",
          "name": "destChainSelector",
          "type": "uint64"
        }
      ],
      "name": "isChainSupported",
      "outputs": [
        {
          "internalType": "bool",
          "name": "supported",
          "type": "bool"
        }
      ],
      "stateMutability": "view",
      "type": "function"
    },
    {
      "inputs": [
        {
          "internalType": "bytes32",
          "name": "",
          "type": "bytes32"
        }
      ],
      "name": "messageDetail",
      "outputs": [
        {
          "internalType": "uint64",
          "name": "sourceChainSelector",
          "type": "uint64"
        },
        {
          "internalType": "address",
          "name": "sender",
          "type": "address"
        },
        {
          "internalType": "address",
          "name": "depositor",
          "type": "address"
        },
        {
          "internalType": "address",
          "name": "token",
          "type": "address"
        },
        {
          "internalType": "uint256",
          "name": "amount",
          "type": "uint256"
        }
      ],
      "stateMutability": "view",
      "type": "function"
    },
    {
      "inputs": [],
      "name": "owner",
      "outputs": [
        {
          "internalType": "address",
          "name": "",
          "type": "address"
        }
      ],
      "stateMutability": "view",
      "type": "function"
    },
    {
      "inputs": [
        {
          "internalType": "uint256",
          "name": "",
          "type": "uint256"
        }
      ],
      "name": "receivedMessages",
      "outputs": [
        {
          "internalType": "bytes32",
          "name": "",
          "type": "bytes32"
        }
      ],
      "stateMutability": "view",
      "type": "function"
    },
    {
      "inputs": [
        {
          "internalType": "uint256",
          "name": "amount",
          "type": "uint256"
        },
        {
          "internalType": "uint64",
          "name": "destinationChain",
          "type": "uint64"
        },
        {
          "internalType": "address",
          "name": "receiver",
          "type": "address"
        },
        {
          "internalType": "bytes32",
          "name": "msgId",
          "type": "bytes32"
        }
      ],
      "name": "repayAndSendMessage",
      "outputs": [],
      "stateMutability": "nonpayable",
      "type": "function"
    },
    {
      "inputs": [
        {
          "internalType": "uint256",
          "name": "amount",
          "type": "uint256"
        },
        {
          "internalType": "uint64",
          "name": "destinationChain",
          "type": "uint64"
        },
        {
          "internalType": "address",
          "name": "receiver",
          "type": "address"
        },
        {
          "internalType": "bytes32",
          "name": "msgId",
          "type": "bytes32"
        }
      ],
      "name": "repayDAIAndSendMessage",
      "outputs": [],
      "stateMutability": "nonpayable",
      "type": "function"
    },
    {
      "inputs": [
        {
          "internalType": "bytes4",
          "name": "interfaceId",
          "type": "bytes4"
        }
      ],
      "name": "supportsInterface",
      "outputs": [
        {
          "internalType": "bool",
          "name": "",
          "type": "bool"
        }
      ],
      "stateMutability": "pure",
      "type": "function"
    },
    {
      "inputs": [
        {
          "internalType": "address",
          "name": "to",
          "type": "address"
        }
      ],
      "name": "transferOwnership",
      "outputs": [],
      "stateMutability": "nonpayable",
      "type": "function"
    },
    {
      "inputs": [],
      "name": "usdcToken",
      "outputs": [
        {
          "internalType": "contract MockUSDC",
          "name": "",
          "type": "address"
        }
      ],
      "stateMutability": "view",
      "type": "function"
    },
    {
      "inputs": [],
      "name": "withdraw",
      "outputs": [],
      "stateMutability": "nonpayable",
      "type": "function"
    },
    {
      "inputs": [
        {
          "internalType": "address",
          "name": "token",
          "type": "address"
        }
      ],
      "name": "withdrawToken",
      "outputs": [],
      "stateMutability": "nonpayable",
      "type": "function"
    },
    {
      "stateMutability": "payable",
      "type": "receive"
    }
  ],
  "bytecode": "0x60a06040523480156200001157600080fd5b5060405162004e1a38038062004e1a83398101604081905262000034916200029d565b33806000846001600160a01b03811662000069576040516335fdcccd60e21b8152600060048201526024015b60405180910390fd5b6001600160a01b039081166080528216620000c75760405162461bcd60e51b815260206004820152601860248201527f43616e6e6f7420736574206f776e657220746f207a65726f0000000000000000604482015260640162000060565b600080546001600160a01b0319166001600160a01b0384811691909117909155811615620000fa57620000fa81620001b9565b5050600880546001600160a01b0319166001600160a01b03841617905550604051620001269062000264565b604051809103906000f08015801562000143573d6000803e3d6000fd5b50600680546001600160a01b0319166001600160a01b0392909216919091179055604051620001729062000272565b604051809103906000f0801580156200018f573d6000803e3d6000fd5b50600780546001600160a01b0319166001600160a01b039290921691909117905550620002d59050565b336001600160a01b03821603620002135760405162461bcd60e51b815260206004820152601760248201527f43616e6e6f74207472616e7366657220746f2073656c66000000000000000000604482015260640162000060565b600180546001600160a01b0319166001600160a01b0383811691821790925560008054604051929316917fed8889f560326eb138920d842192f0eb3dd22b4f139c87a2c57538e05bae12789190a350565b61120b8062002a0683390190565b6112098062003c1183390190565b80516001600160a01b03811681146200029857600080fd5b919050565b60008060408385031215620002b157600080fd5b620002bc8362000280565b9150620002cc6020840162000280565b90509250929050565b60805161270e620002f8600039600081816104e001526114a9015261270e6000f3fe6080604052600436106101795760003560e01c806379ba5097116100cb5780639c3ddb2e1161007f578063be22f54611610059578063be22f54614610504578063d030366c14610524578063f2fde38b1461054457600080fd5b80639c3ddb2e14610447578063a48a9058146104b1578063b0f479a1146104d157600080fd5b806389476069116100b057806389476069146103d15780638da5cb5b146103f15780638f601f661461040f57600080fd5b806379ba50971461039c57806385572ffb146103b157600080fd5b806330dd9edd1161012d578063507f403511610107578063507f4035146102fa57806351bd66981461031a5780636d40ab2f1461037c57600080fd5b806330dd9edd1461028b5780633ccfd60b146102ab5780634bca6ecf146102c257600080fd5b806311eac8551161015e57806311eac855146101d9578063263596a514610211578063280ff1b51461026b57600080fd5b806301ffc9a7146101855780630b652d6d146101ba57600080fd5b3661018057005b600080fd5b34801561019157600080fd5b506101a56101a0366004611f9f565b610564565b60405190151581526020015b60405180910390f35b3480156101c657600080fd5b506002545b6040519081526020016101b1565b3480156101e557600080fd5b506006546101f9906001600160a01b031681565b6040516001600160a01b0390911681526020016101b1565b34801561021d57600080fd5b506102266105fd565b6040805196875267ffffffffffffffff90951660208701526001600160a01b0393841694860194909452908216606085015216608083015260a082015260c0016101b1565b34801561027757600080fd5b506101cb610286366004611fe8565b6106f3565b34801561029757600080fd5b506101cb6102a6366004611fe8565b61097d565b3480156102b757600080fd5b506102c0610bf5565b005b3480156102ce57600080fd5b506101cb6102dd366004612016565b600560209081526000928352604080842090915290825290205481565b34801561030657600080fd5b506102c061031536600461206c565b610c8e565b34801561032657600080fd5b5061033a610335366004611fe8565b610fd3565b6040805167ffffffffffffffff90961686526001600160a01b03948516602087015292841692850192909252919091166060830152608082015260a0016101b1565b34801561038857600080fd5b506102c061039736600461206c565b6110a5565b3480156103a857600080fd5b506102c06113e0565b3480156103bd57600080fd5b506102c06103cc3660046120b2565b61149e565b3480156103dd57600080fd5b506102c06103ec3660046120ed565b611516565b3480156103fd57600080fd5b506000546001600160a01b03166101f9565b34801561041b57600080fd5b506101cb61042a366004612016565b600460209081526000928352604080842090915290825290205481565b34801561045357600080fd5b5061033a610462366004611fe8565b6003602081905260009182526040909120805460018201546002830154929093015467ffffffffffffffff8216936001600160a01b036801000000000000000090930483169390831692169085565b3480156104bd57600080fd5b506101a56104cc36600461210a565b61161b565b3480156104dd57600080fd5b507f00000000000000000000000000000000000000000000000000000000000000006101f9565b34801561051057600080fd5b506007546101f9906001600160a01b031681565b34801561053057600080fd5b506101cb61053f366004611fe8565b61170c565b34801561055057600080fd5b506102c061055f3660046120ed565b61172d565b60007fffffffff0000000000000000000000000000000000000000000000000000000082167f85572ffb0000000000000000000000000000000000000000000000000000000014806105f757507fffffffff0000000000000000000000000000000000000000000000000000000082167f01ffc9a700000000000000000000000000000000000000000000000000000000145b92915050565b600080600080600080600280549050600003610645576040517f6ad69dd500000000000000000000000000000000000000000000000000000000815260040160405180910390fd5b600280546106559060019061213b565b815481106106655761066561214e565b6000918252602080832091909101548083526003808352604093849020845160a081018652815467ffffffffffffffff8116808352680100000000000000009091046001600160a01b03908116968301879052600184015481169783018890526002840154166060830181905292909301546080909101819052929b919a5092985092965090945092509050565b3360009081526005602090815260408083206007546001600160a01b03168452909152812054801561076c5760405162461bcd60e51b815260206004820152601f60248201527f43616c6c65722068617320616c726561647920626f72726f776564204441490060448201526064015b60405180910390fd5b6000838152600360205260409020600201546001600160a01b0316806107e25760405162461bcd60e51b815260206004820152602560248201527f43616c6c657220686173206e6f74207472616e736665727265642074686973206044820152643a37b5b2b760d91b6064820152608401610763565b3360009081526004602090815260408083206001600160a01b0385168452909152812054906064610814836050612164565b61081e919061217b565b9050600073c0f82a46033b8bdba4bb0b0e28bc2006f64355bc90506000816001600160a01b031663feaf968c6040518163ffffffff1660e01b815260040160a060405180830381865afa158015610879573d6000803e3d6000fd5b505050506040513d601f19601f8201168201806040525081019061089d91906121b7565b5050509150506000816402540be4006108b69190612207565b905060006108c48286612164565b6007546040516340c10f1960e01b8152336004820152602481018390529192506001600160a01b0316906340c10f1990604401600060405180830381600087803b15801561091157600080fd5b505af1158015610925573d6000803e3d6000fd5b5050336000908152600560209081526040808320600780546001600160a01b039081168652828552838620899055905416845290915290205483149150610970905057610970612253565b9998505050505050505050565b3360009081526005602090815260408083206006546001600160a01b0316845290915281205480156109f15760405162461bcd60e51b815260206004820181905260248201527f43616c6c65722068617320616c726561647920626f72726f77656420555344436044820152606401610763565b6000838152600360205260409020600201546001600160a01b031680610a675760405162461bcd60e51b815260206004820152602560248201527f43616c6c657220686173206e6f74207472616e736665727265642074686973206044820152643a37b5b2b760d91b6064820152608401610763565b3360009081526004602090815260408083206001600160a01b0385168452909152812054906064610a99836046612164565b610aa3919061217b565b9050600073c0f82a46033b8bdba4bb0b0e28bc2006f64355bc90506000816001600160a01b031663feaf968c6040518163ffffffff1660e01b815260040160a060405180830381865afa158015610afe573d6000803e3d6000fd5b505050506040513d601f19601f82011682018060405250810190610b2291906121b7565b5050509150506000816402540be400610b3b9190612207565b90506000610b498286612164565b6006546040516340c10f1960e01b8152336004820152602481018390529192506001600160a01b0316906340c10f1990604401600060405180830381600087803b158015610b9657600080fd5b505af1158015610baa573d6000803e3d6000fd5b5050336000908152600560209081526040808320600680546001600160a01b039081168652828552838620899055905416845290915290205483149150610970905057610970612253565b610bfd61173e565b6040514790600090339083908381818185875af1925050503d8060008114610c41576040519150601f19603f3d011682016040523d82523d6000602084013e610c46565b606091505b5050905080610c8a576040517f0cd9003700000000000000000000000000000000000000000000000000000000815233600482015260248101839052604401610763565b5050565b3360009081526005602090815260408083206006546001600160a01b03168452909152902054841015610d195760405162461bcd60e51b815260206004820152602d60248201527f52657061796d656e7420616d6f756e74206973206c657373207468616e20616d60448201526c1bdd5b9d08189bdc9c9bddd959609a1b6064820152608401610763565b6000818152600360209081526040808320600201543380855260048085528386206001600160a01b0393841680885295528386205460065494516370a0823160e01b815291820192909252939490939092909116906370a0823190602401602060405180830381865afa158015610d94573d6000803e3d6000fd5b505050506040513d601f19601f82011682018060405250810190610db89190612269565b905086811015610e305760405162461bcd60e51b815260206004820152603660248201527f43616c6c65722773205553444320746f6b656e2062616c616e636520696e737560448201527f6666696369656e7420666f722072657061796d656e74000000000000000000006064820152608401610763565b3360008181526005602090815260408083206006546001600160a01b0316808552925291829020549151636eb1769f60e11b81526004810193909352306024840152909163dd62ed3e90604401602060405180830381865afa158015610e9a573d6000803e3d6000fd5b505050506040513d601f19601f82011682018060405250810190610ebe9190612269565b1015610f325760405162461bcd60e51b815260206004820152602f60248201527f50726f746f636f6c20616c6c6f77616e6365206973206c657373207468616e2060448201527f616d6f756e7420626f72726f77656400000000000000000000000000000000006064820152608401610763565b60065460405163079cc67960e41b8152336004820152602481018390526001600160a01b03909116906379cc679090604401600060405180830381600087803b158015610f7e57600080fd5b505af1158015610f92573d6000803e3d6000fd5b50503360009081526005602090815260408083206006546001600160a01b0316845290915281205550610fc990508686858561179a565b5050505050505050565b6000818152600360208181526040808420815160a081018352815467ffffffffffffffff811682526001600160a01b03680100000000000000009091048116948201859052600183015481169382019390935260028201549092166060830152909201546080830152829182918291829161107d576040517f4d47bb3300000000000000000000000000000000000000000000000000000000815260048101889052602401610763565b8051602082015160408301516060840151608090940151929a91995097509195509350915050565b3360009081526005602090815260408083206007546001600160a01b031684529091529020548410156111305760405162461bcd60e51b815260206004820152602d60248201527f52657061796d656e7420616d6f756e74206973206c657373207468616e20616d60448201526c1bdd5b9d08189bdc9c9bddd959609a1b6064820152608401610763565b6000818152600360209081526040808320600201543380855260048085528386206001600160a01b0393841680885295528386205460075494516370a0823160e01b815291820192909252939490939092909116906370a0823190602401602060405180830381865afa1580156111ab573d6000803e3d6000fd5b505050506040513d601f19601f820116820180604052508101906111cf9190612269565b9050868110156112475760405162461bcd60e51b815260206004820152603560248201527f43616c6c657227732044414920746f6b656e2062616c616e636520696e73756660448201527f66696369656e7420666f722072657061796d656e7400000000000000000000006064820152608401610763565b3360008181526005602090815260408083206007546001600160a01b0316808552925291829020549151636eb1769f60e11b81526004810193909352306024840152909163dd62ed3e90604401602060405180830381865afa1580156112b1573d6000803e3d6000fd5b505050506040513d601f19601f820116820180604052508101906112d59190612269565b10156113495760405162461bcd60e51b815260206004820152602f60248201527f50726f746f636f6c20616c6c6f77616e6365206973206c657373207468616e2060448201527f616d6f756e7420626f72726f77656400000000000000000000000000000000006064820152608401610763565b60075460405163079cc67960e41b8152336004820152602481018390526001600160a01b03909116906379cc679090604401600060405180830381600087803b15801561139557600080fd5b505af11580156113a9573d6000803e3d6000fd5b50503360009081526005602090815260408083206007546001600160a01b0316845290915281205550610fc990508686858561179a565b6001546001600160a01b0316331461143a5760405162461bcd60e51b815260206004820152601660248201527f4d7573742062652070726f706f736564206f776e6572000000000000000000006044820152606401610763565b600080543373ffffffffffffffffffffffffffffffffffffffff19808316821784556001805490911690556040516001600160a01b0390921692909183917f8be0079c531659141344cd1fd0a4f28419497f9722a3daafe3b4186f6b6457e091a350565b336001600160a01b037f00000000000000000000000000000000000000000000000000000000000000001614611502576040517fd7f73334000000000000000000000000000000000000000000000000000000008152336004820152602401610763565b61151361150e82612432565b611c60565b50565b61151e61173e565b6040516370a0823160e01b81523060048201526000906001600160a01b038316906370a0823190602401602060405180830381865afa158015611565573d6000803e3d6000fd5b505050506040513d601f19601f820116820180604052508101906115899190612269565b6040517fa9059cbb000000000000000000000000000000000000000000000000000000008152336004820152602481018290529091506001600160a01b0383169063a9059cbb906044016020604051808303816000875af11580156115f2573d6000803e3d6000fd5b505050506040513d601f19601f8201168201806040525081019061161691906124df565b505050565b6000306001600160a01b031663b0f479a16040518163ffffffff1660e01b8152600401602060405180830381865afa15801561165b573d6000803e3d6000fd5b505050506040513d601f19601f8201168201806040525081019061167f9190612501565b6040517fa48a905800000000000000000000000000000000000000000000000000000000815267ffffffffffffffff841660048201526001600160a01b03919091169063a48a905890602401602060405180830381865afa1580156116e8573d6000803e3d6000fd5b505050506040513d601f19601f820116820180604052508101906105f791906124df565b6002818154811061171c57600080fd5b600091825260209091200154905081565b61173561173e565b61151381611ee9565b6000546001600160a01b031633146117985760405162461bcd60e51b815260206004820152601660248201527f4f6e6c792063616c6c61626c65206279206f776e6572000000000000000000006044820152606401610763565b565b60408051600180825281830190925260009133918391816020015b60408051808201909152600080825260208201528152602001906001900390816117b557905050905060006040518060400160405280876001600160a01b0316815260200186815250905080826000815181106118145761181461214e565b60209081029190910101526040805160a081019091526001600160a01b03881660c08201526000908060e0810160405160208183030381529060405281526020018560405160200161187591906001600160a01b0391909116815260200190565b60408051601f1981840301815291815290825260208083018790526008546001600160a01b0316838301528151808301835262030d4080825260009183019182528351602481019190915290511515604480830191909152835180830390910181526064909101909252810180517bffffffffffffffffffffffffffffffffffffffffffffffffffffffff167f97a657c90000000000000000000000000000000000000000000000000000000017905260609091019081525090506000306001600160a01b031663b0f479a16040518163ffffffff1660e01b8152600401602060405180830381865afa158015611970573d6000803e3d6000fd5b505050506040513d601f19601f820116820180604052508101906119949190612501565b90506000816001600160a01b03166320487ded8c856040518363ffffffff1660e01b81526004016119c6929190612564565b602060405180830381865afa1580156119e3573d6000803e3d6000fd5b505050506040513d601f19601f82011682018060405250810190611a079190612269565b60085460405163095ea7b360e01b81526001600160a01b0385811660048301526024820184905292935091169063095ea7b3906044016020604051808303816000875af1158015611a5c573d6000803e3d6000fd5b505050506040513d601f19601f82011682018060405250810190611a8091906124df565b5060405163095ea7b360e01b81526001600160a01b038381166004830152602482018a90528a169063095ea7b3906044016020604051808303816000875af1158015611ad0573d6000803e3d6000fd5b505050506040513d601f19601f82011682018060405250810190611af491906124df565b611b405760405162461bcd60e51b815260206004820152601860248201527f4661696c656420746f20617070726f766520726f7574657200000000000000006044820152606401610763565b6040517f96f4e9f90000000000000000000000000000000000000000000000000000000081526001600160a01b038316906396f4e9f990611b87908e908790600401612564565b6020604051808303816000875af1158015611ba6573d6000803e3d6000fd5b505050506040513d601f19601f82011682018060405250810190611bca9190612269565b96508a67ffffffffffffffff16877f2203b02ed2b5012803d6fecd082627e1cf6906cbfc26b50528c0c8bdc3a326468c898886604051611c0d9493929190612646565b60405180910390a36001600160a01b038087166000908152600460209081526040808320938d16835292905290812080548a9290611c4c90849061213b565b90915550505050505050505b949350505050565b8051602080830151604084015180519192600092611c849290810182019101612501565b905060008460600151806020019051810190611ca09190612501565b9050600085608001519050600081600081518110611cc057611cc061214e565b6020026020010151600001519050600082600081518110611ce357611ce361214e565b6020026020010151602001519050600287908060018154018082558091505060019003906000526020600020016000909190919091505560006040518060a001604052808867ffffffffffffffff168152602001876001600160a01b03168152602001866001600160a01b03168152602001846001600160a01b0316815260200183815250905080600360008a815260200190815260200160002060008201518160000160006101000a81548167ffffffffffffffff021916908367ffffffffffffffff16021790555060208201518160000160086101000a8154816001600160a01b0302191690836001600160a01b0316021790555060408201518160010160006101000a8154816001600160a01b0302191690836001600160a01b0316021790555060608201518160020160006101000a8154816001600160a01b0302191690836001600160a01b03160217905550608082015181600301559050508667ffffffffffffffff16887fb8387be1e3a7f6676cc5eb93b06b8912fd99545cd542e6296b2db1d0fd82cacd888888600081518110611e8357611e8361214e565b6020026020010151604051611e9a9392919061268d565b60405180910390a36001600160a01b03808616600090815260046020908152604080832093871683529290529081208054849290611ed99084906126c5565b9091555050505050505050505050565b336001600160a01b03821603611f415760405162461bcd60e51b815260206004820152601760248201527f43616e6e6f74207472616e7366657220746f2073656c660000000000000000006044820152606401610763565b6001805473ffffffffffffffffffffffffffffffffffffffff19166001600160a01b0383811691821790925560008054604051929316917fed8889f560326eb138920d842192f0eb3dd22b4f139c87a2c57538e05bae12789190a350565b600060208284031215611fb157600080fd5b81357fffffffff0000000000000000000000000000000000000000000000000000000081168114611fe157600080fd5b9392505050565b600060208284031215611ffa57600080fd5b5035919050565b6001600160a01b038116811461151357600080fd5b6000806040838503121561202957600080fd5b823561203481612001565b9150602083013561204481612001565b809150509250929050565b803567ffffffffffffffff8116811461206757600080fd5b919050565b6000806000806080858703121561208257600080fd5b843593506120926020860161204f565b925060408501356120a281612001565b9396929550929360600135925050565b6000602082840312156120c457600080fd5b813567ffffffffffffffff8111156120db57600080fd5b820160a08185031215611fe157600080fd5b6000602082840312156120ff57600080fd5b8135611fe181612001565b60006020828403121561211c57600080fd5b611fe18261204f565b634e487b7160e01b600052601160045260246000fd5b818103818111156105f7576105f7612125565b634e487b7160e01b600052603260045260246000fd5b80820281158282048414176105f7576105f7612125565b60008261219857634e487b7160e01b600052601260045260246000fd5b500490565b805169ffffffffffffffffffff8116811461206757600080fd5b600080600080600060a086880312156121cf57600080fd5b6121d88661219d565b94506020860151935060408601519250606086015191506121fb6080870161219d565b90509295509295909350565b808202600082127f80000000000000000000000000000000000000000000000000000000000000008414161561223f5761223f612125565b81810583148215176105f7576105f7612125565b634e487b7160e01b600052600160045260246000fd5b60006020828403121561227b57600080fd5b5051919050565b634e487b7160e01b600052604160045260246000fd5b6040805190810167ffffffffffffffff811182821017156122bb576122bb612282565b60405290565b60405160a0810167ffffffffffffffff811182821017156122bb576122bb612282565b604051601f8201601f1916810167ffffffffffffffff8111828210171561230d5761230d612282565b604052919050565b600082601f83011261232657600080fd5b813567ffffffffffffffff81111561234057612340612282565b612353601f8201601f19166020016122e4565b81815284602083860101111561236857600080fd5b816020850160208301376000918101602001919091529392505050565b600082601f83011261239657600080fd5b8135602067ffffffffffffffff8211156123b2576123b2612282565b6123c0818360051b016122e4565b82815260069290921b840181019181810190868411156123df57600080fd5b8286015b8481101561242757604081890312156123fc5760008081fd5b612404612298565b813561240f81612001565b815281850135858201528352918301916040016123e3565b509695505050505050565b600060a0823603121561244457600080fd5b61244c6122c1565b8235815261245c6020840161204f565b6020820152604083013567ffffffffffffffff8082111561247c57600080fd5b61248836838701612315565b604084015260608501359150808211156124a157600080fd5b6124ad36838701612315565b606084015260808501359150808211156124c657600080fd5b506124d336828601612385565b60808301525092915050565b6000602082840312156124f157600080fd5b81518015158114611fe157600080fd5b60006020828403121561251357600080fd5b8151611fe181612001565b6000815180845260005b8181101561254457602081850181015186830182015201612528565b506000602082860101526020601f19601f83011685010191505092915050565b6000604067ffffffffffffffff8516835260208181850152845160a08386015261259160e086018261251e565b905081860151603f19808784030160608801526125ae838361251e565b88860151888203830160808a01528051808352908601945060009350908501905b80841015612609576125f582865180516001600160a01b03168252602090810151910152565b9385019360019390930192908601906125cf565b5060608901516001600160a01b031660a08901526080890151888203830160c08a01529550612638818761251e565b9a9950505050505050505050565b6001600160a01b0385811682528416602082015260a0810161267e604083018580516001600160a01b03168252602090810151910152565b82608083015295945050505050565b6001600160a01b0384811682528316602082015260808101611c58604083018480516001600160a01b03168252602090810151910152565b808201808211156105f7576105f761212556fea264697066735822122097dbfb3b583f7631f8ca2e9da3777d34dc57ad61945a07f72438e4d2fccd61c164736f6c6343000813003360806040523480156200001157600080fd5b50604051806040016040528060088152602001674d6f636b5553444360c01b81525060405180604001604052806005815260200164575553444360d81b81525081600390816200006291906200018f565b5060046200007182826200018f565b5050506200008e620000886200009460201b60201c565b62000098565b6200025b565b3390565b600580546001600160a01b038381166001600160a01b0319831681179093556040519116919082907f8be0079c531659141344cd1fd0a4f28419497f9722a3daafe3b4186f6b6457e090600090a35050565b634e487b7160e01b600052604160045260246000fd5b600181811c908216806200011557607f821691505b6020821081036200013657634e487b7160e01b600052602260045260246000fd5b50919050565b601f8211156200018a57600081815260208120601f850160051c81016020861015620001655750805b601f850160051c820191505b81811015620001865782815560010162000171565b5050505b505050565b81516001600160401b03811115620001ab57620001ab620000ea565b620001c381620001bc845462000100565b846200013c565b602080601f831160018114620001fb5760008415620001e25750858301515b600019600386901b1c1916600185901b17855562000186565b600085815260208120601f198616915b828110156200022c578886015182559484019460019091019084016200020b565b50858210156200024b5787850151600019600388901b60f8161c191681555b5050505050600190811b01905550565b610fa0806200026b6000396000f3fe608060405234801561001057600080fd5b506004361061011b5760003560e01c806370a08231116100b257806395d89b4111610081578063a9059cbb11610066578063a9059cbb1461024a578063dd62ed3e1461025d578063f2fde38b1461029657600080fd5b806395d89b411461022f578063a457c2d71461023757600080fd5b806370a08231146101d0578063715018a6146101f957806379cc6790146102015780638da5cb5b1461021457600080fd5b8063313ce567116100ee578063313ce56714610186578063395093511461019557806340c10f19146101a857806342966c68146101bd57600080fd5b806306fdde0314610120578063095ea7b31461013e57806318160ddd1461016157806323b872dd14610173575b600080fd5b6101286102a9565b6040516101359190610db6565b60405180910390f35b61015161014c366004610e20565b61033b565b6040519015158152602001610135565b6002545b604051908152602001610135565b610151610181366004610e4a565b610352565b60405160128152602001610135565b6101516101a3366004610e20565b610416565b6101bb6101b6366004610e20565b610452565b005b6101bb6101cb366004610e86565b6104ba565b6101656101de366004610e9f565b6001600160a01b031660009081526020819052604090205490565b6101bb6104c7565b6101bb61020f366004610e20565b61052d565b6005546040516001600160a01b039091168152602001610135565b6101286105cc565b610151610245366004610e20565b6105db565b610151610258366004610e20565b61068c565b61016561026b366004610ec1565b6001600160a01b03918216600090815260016020908152604080832093909416825291909152205490565b6101bb6102a4366004610e9f565b610699565b6060600380546102b890610ef4565b80601f01602080910402602001604051908101604052809291908181526020018280546102e490610ef4565b80156103315780601f1061030657610100808354040283529160200191610331565b820191906000526020600020905b81548152906001019060200180831161031457829003601f168201915b5050505050905090565b6000610348338484610778565b5060015b92915050565b600061035f8484846108d0565b6001600160a01b0384166000908152600160209081526040808320338452909152902054828110156103fe5760405162461bcd60e51b815260206004820152602860248201527f45524332303a207472616e7366657220616d6f756e742065786365656473206160448201527f6c6c6f77616e636500000000000000000000000000000000000000000000000060648201526084015b60405180910390fd5b61040b8533858403610778565b506001949350505050565b3360008181526001602090815260408083206001600160a01b0387168452909152812054909161034891859061044d908690610f44565b610778565b6005546001600160a01b031633146104ac5760405162461bcd60e51b815260206004820181905260248201527f4f776e61626c653a2063616c6c6572206973206e6f7420746865206f776e657260448201526064016103f5565b6104b68282610ae8565b5050565b6104c43382610bc7565b50565b6005546001600160a01b031633146105215760405162461bcd60e51b815260206004820181905260248201527f4f776e61626c653a2063616c6c6572206973206e6f7420746865206f776e657260448201526064016103f5565b61052b6000610d4c565b565b6000610539833361026b565b9050818110156105b05760405162461bcd60e51b8152602060048201526024808201527f45524332303a206275726e20616d6f756e74206578636565647320616c6c6f7760448201527f616e63650000000000000000000000000000000000000000000000000000000060648201526084016103f5565b6105bd8333848403610778565b6105c78383610bc7565b505050565b6060600480546102b890610ef4565b3360009081526001602090815260408083206001600160a01b0386168452909152812054828110156106755760405162461bcd60e51b815260206004820152602560248201527f45524332303a2064656372656173656420616c6c6f77616e63652062656c6f7760448201527f207a65726f00000000000000000000000000000000000000000000000000000060648201526084016103f5565b6106823385858403610778565b5060019392505050565b60006103483384846108d0565b6005546001600160a01b031633146106f35760405162461bcd60e51b815260206004820181905260248201527f4f776e61626c653a2063616c6c6572206973206e6f7420746865206f776e657260448201526064016103f5565b6001600160a01b03811661076f5760405162461bcd60e51b815260206004820152602660248201527f4f776e61626c653a206e6577206f776e657220697320746865207a65726f206160448201527f646472657373000000000000000000000000000000000000000000000000000060648201526084016103f5565b6104c481610d4c565b6001600160a01b0383166107f35760405162461bcd60e51b8152602060048201526024808201527f45524332303a20617070726f76652066726f6d20746865207a65726f2061646460448201527f726573730000000000000000000000000000000000000000000000000000000060648201526084016103f5565b6001600160a01b03821661086f5760405162461bcd60e51b815260206004820152602260248201527f45524332303a20617070726f766520746f20746865207a65726f20616464726560448201527f737300000000000000000000000000000000000000000000000000000000000060648201526084016103f5565b6001600160a01b0383811660008181526001602090815260408083209487168084529482529182902085905590518481527f8c5be1e5ebec7d5bd14f71427d1e84f3dd0314c0f7b2291e5b200ac8c7c3b925910160405180910390a3505050565b6001600160a01b03831661094c5760405162461bcd60e51b815260206004820152602560248201527f45524332303a207472616e736665722066726f6d20746865207a65726f20616460448201527f647265737300000000000000000000000000000000000000000000000000000060648201526084016103f5565b6001600160a01b0382166109c85760405162461bcd60e51b815260206004820152602360248201527f45524332303a207472616e7366657220746f20746865207a65726f206164647260448201527f657373000000000000000000000000000000000000000000000000000000000060648201526084016103f5565b6001600160a01b03831660009081526020819052604090205481811015610a575760405162461bcd60e51b815260206004820152602660248201527f45524332303a207472616e7366657220616d6f756e742065786365656473206260448201527f616c616e6365000000000000000000000000000000000000000000000000000060648201526084016103f5565b6001600160a01b03808516600090815260208190526040808220858503905591851681529081208054849290610a8e908490610f44565b92505081905550826001600160a01b0316846001600160a01b03167fddf252ad1be2c89b69c2b068fc378daa952ba7f163c4a11628f55a4df523b3ef84604051610ada91815260200190565b60405180910390a350505050565b6001600160a01b038216610b3e5760405162461bcd60e51b815260206004820152601f60248201527f45524332303a206d696e7420746f20746865207a65726f20616464726573730060448201526064016103f5565b8060026000828254610b509190610f44565b90915550506001600160a01b03821660009081526020819052604081208054839290610b7d908490610f44565b90915550506040518181526001600160a01b038316906000907fddf252ad1be2c89b69c2b068fc378daa952ba7f163c4a11628f55a4df523b3ef9060200160405180910390a35050565b6001600160a01b038216610c435760405162461bcd60e51b815260206004820152602160248201527f45524332303a206275726e2066726f6d20746865207a65726f2061646472657360448201527f730000000000000000000000000000000000000000000000000000000000000060648201526084016103f5565b6001600160a01b03821660009081526020819052604090205481811015610cd25760405162461bcd60e51b815260206004820152602260248201527f45524332303a206275726e20616d6f756e7420657863656564732062616c616e60448201527f636500000000000000000000000000000000000000000000000000000000000060648201526084016103f5565b6001600160a01b0383166000908152602081905260408120838303905560028054849290610d01908490610f57565b90915550506040518281526000906001600160a01b038516907fddf252ad1be2c89b69c2b068fc378daa952ba7f163c4a11628f55a4df523b3ef9060200160405180910390a3505050565b600580546001600160a01b038381167fffffffffffffffffffffffff0000000000000000000000000000000000000000831681179093556040519116919082907f8be0079c531659141344cd1fd0a4f28419497f9722a3daafe3b4186f6b6457e090600090a35050565b600060208083528351808285015260005b81811015610de357858101830151858201604001528201610dc7565b506000604082860101526040601f19601f8301168501019250505092915050565b80356001600160a01b0381168114610e1b57600080fd5b919050565b60008060408385031215610e3357600080fd5b610e3c83610e04565b946020939093013593505050565b600080600060608486031215610e5f57600080fd5b610e6884610e04565b9250610e7660208501610e04565b9150604084013590509250925092565b600060208284031215610e9857600080fd5b5035919050565b600060208284031215610eb157600080fd5b610eba82610e04565b9392505050565b60008060408385031215610ed457600080fd5b610edd83610e04565b9150610eeb60208401610e04565b90509250929050565b600181811c90821680610f0857607f821691505b602082108103610f2857634e487b7160e01b600052602260045260246000fd5b50919050565b634e487b7160e01b600052601160045260246000fd5b8082018082111561034c5761034c610f2e565b8181038181111561034c5761034c610f2e56fea26469706673582212207a1f39ac2050cbdf1f2c989f74f62670219e1eaddf863eb23eabc18b4d5e260264736f6c6343000813003360806040523480156200001157600080fd5b50604051806040016040528060078152602001664d6f636b44414960c81b815250604051806040016040528060048152602001635744414960e01b81525081600390816200006091906200018d565b5060046200006f82826200018d565b5050506200008c620000866200009260201b60201c565b62000096565b62000259565b3390565b600580546001600160a01b038381166001600160a01b0319831681179093556040519116919082907f8be0079c531659141344cd1fd0a4f28419497f9722a3daafe3b4186f6b6457e090600090a35050565b634e487b7160e01b600052604160045260246000fd5b600181811c908216806200011357607f821691505b6020821081036200013457634e487b7160e01b600052602260045260246000fd5b50919050565b601f8211156200018857600081815260208120601f850160051c81016020861015620001635750805b601f850160051c820191505b8181101562000184578281556001016200016f565b5050505b505050565b81516001600160401b03811115620001a957620001a9620000e8565b620001c181620001ba8454620000fe565b846200013a565b602080601f831160018114620001f95760008415620001e05750858301515b600019600386901b1c1916600185901b17855562000184565b600085815260208120601f198616915b828110156200022a5788860151825594840194600190910190840162000209565b5085821015620002495787850151600019600388901b60f8161c191681555b5050505050600190811b01905550565b610fa080620002696000396000f3fe608060405234801561001057600080fd5b506004361061011b5760003560e01c806370a08231116100b257806395d89b4111610081578063a9059cbb11610066578063a9059cbb1461024a578063dd62ed3e1461025d578063f2fde38b1461029657600080fd5b806395d89b411461022f578063a457c2d71461023757600080fd5b806370a08231146101d0578063715018a6146101f957806379cc6790146102015780638da5cb5b1461021457600080fd5b8063313ce567116100ee578063313ce56714610186578063395093511461019557806340c10f19146101a857806342966c68146101bd57600080fd5b806306fdde0314610120578063095ea7b31461013e57806318160ddd1461016157806323b872dd14610173575b600080fd5b6101286102a9565b6040516101359190610db6565b60405180910390f35b61015161014c366004610e20565b61033b565b6040519015158152602001610135565b6002545b604051908152602001610135565b610151610181366004610e4a565b610352565b60405160128152602001610135565b6101516101a3366004610e20565b610416565b6101bb6101b6366004610e20565b610452565b005b6101bb6101cb366004610e86565b6104ba565b6101656101de366004610e9f565b6001600160a01b031660009081526020819052604090205490565b6101bb6104c7565b6101bb61020f366004610e20565b61052d565b6005546040516001600160a01b039091168152602001610135565b6101286105cc565b610151610245366004610e20565b6105db565b610151610258366004610e20565b61068c565b61016561026b366004610ec1565b6001600160a01b03918216600090815260016020908152604080832093909416825291909152205490565b6101bb6102a4366004610e9f565b610699565b6060600380546102b890610ef4565b80601f01602080910402602001604051908101604052809291908181526020018280546102e490610ef4565b80156103315780601f1061030657610100808354040283529160200191610331565b820191906000526020600020905b81548152906001019060200180831161031457829003601f168201915b5050505050905090565b6000610348338484610778565b5060015b92915050565b600061035f8484846108d0565b6001600160a01b0384166000908152600160209081526040808320338452909152902054828110156103fe5760405162461bcd60e51b815260206004820152602860248201527f45524332303a207472616e7366657220616d6f756e742065786365656473206160448201527f6c6c6f77616e636500000000000000000000000000000000000000000000000060648201526084015b60405180910390fd5b61040b8533858403610778565b506001949350505050565b3360008181526001602090815260408083206001600160a01b0387168452909152812054909161034891859061044d908690610f44565b610778565b6005546001600160a01b031633146104ac5760405162461bcd60e51b815260206004820181905260248201527f4f776e61626c653a2063616c6c6572206973206e6f7420746865206f776e657260448201526064016103f5565b6104b68282610ae8565b5050565b6104c43382610bc7565b50565b6005546001600160a01b031633146105215760405162461bcd60e51b815260206004820181905260248201527f4f776e61626c653a2063616c6c6572206973206e6f7420746865206f776e657260448201526064016103f5565b61052b6000610d4c565b565b6000610539833361026b565b9050818110156105b05760405162461bcd60e51b8152602060048201526024808201527f45524332303a206275726e20616d6f756e74206578636565647320616c6c6f7760448201527f616e63650000000000000000000000000000000000000000000000000000000060648201526084016103f5565b6105bd8333848403610778565b6105c78383610bc7565b505050565b6060600480546102b890610ef4565b3360009081526001602090815260408083206001600160a01b0386168452909152812054828110156106755760405162461bcd60e51b815260206004820152602560248201527f45524332303a2064656372656173656420616c6c6f77616e63652062656c6f7760448201527f207a65726f00000000000000000000000000000000000000000000000000000060648201526084016103f5565b6106823385858403610778565b5060019392505050565b60006103483384846108d0565b6005546001600160a01b031633146106f35760405162461bcd60e51b815260206004820181905260248201527f4f776e61626c653a2063616c6c6572206973206e6f7420746865206f776e657260448201526064016103f5565b6001600160a01b03811661076f5760405162461bcd60e51b815260206004820152602660248201527f4f776e61626c653a206e6577206f776e657220697320746865207a65726f206160448201527f646472657373000000000000000000000000000000000000000000000000000060648201526084016103f5565b6104c481610d4c565b6001600160a01b0383166107f35760405162461bcd60e51b8152602060048201526024808201527f45524332303a20617070726f76652066726f6d20746865207a65726f2061646460448201527f726573730000000000000000000000000000000000000000000000000000000060648201526084016103f5565b6001600160a01b03821661086f5760405162461bcd60e51b815260206004820152602260248201527f45524332303a20617070726f766520746f20746865207a65726f20616464726560448201527f737300000000000000000000000000000000000000000000000000000000000060648201526084016103f5565b6001600160a01b0383811660008181526001602090815260408083209487168084529482529182902085905590518481527f8c5be1e5ebec7d5bd14f71427d1e84f3dd0314c0f7b2291e5b200ac8c7c3b925910160405180910390a3505050565b6001600160a01b03831661094c5760405162461bcd60e51b815260206004820152602560248201527f45524332303a207472616e736665722066726f6d20746865207a65726f20616460448201527f647265737300000000000000000000000000000000000000000000000000000060648201526084016103f5565b6001600160a01b0382166109c85760405162461bcd60e51b815260206004820152602360248201527f45524332303a207472616e7366657220746f20746865207a65726f206164647260448201527f657373000000000000000000000000000000000000000000000000000000000060648201526084016103f5565b6001600160a01b03831660009081526020819052604090205481811015610a575760405162461bcd60e51b815260206004820152602660248201527f45524332303a207472616e7366657220616d6f756e742065786365656473206260448201527f616c616e6365000000000000000000000000000000000000000000000000000060648201526084016103f5565b6001600160a01b03808516600090815260208190526040808220858503905591851681529081208054849290610a8e908490610f44565b92505081905550826001600160a01b0316846001600160a01b03167fddf252ad1be2c89b69c2b068fc378daa952ba7f163c4a11628f55a4df523b3ef84604051610ada91815260200190565b60405180910390a350505050565b6001600160a01b038216610b3e5760405162461bcd60e51b815260206004820152601f60248201527f45524332303a206d696e7420746f20746865207a65726f20616464726573730060448201526064016103f5565b8060026000828254610b509190610f44565b90915550506001600160a01b03821660009081526020819052604081208054839290610b7d908490610f44565b90915550506040518181526001600160a01b038316906000907fddf252ad1be2c89b69c2b068fc378daa952ba7f163c4a11628f55a4df523b3ef9060200160405180910390a35050565b6001600160a01b038216610c435760405162461bcd60e51b815260206004820152602160248201527f45524332303a206275726e2066726f6d20746865207a65726f2061646472657360448201527f730000000000000000000000000000000000000000000000000000000000000060648201526084016103f5565b6001600160a01b03821660009081526020819052604090205481811015610cd25760405162461bcd60e51b815260206004820152602260248201527f45524332303a206275726e20616d6f756e7420657863656564732062616c616e60448201527f636500000000000000000000000000000000000000000000000000000000000060648201526084016103f5565b6001600160a01b0383166000908152602081905260408120838303905560028054849290610d01908490610f57565b90915550506040518281526000906001600160a01b038516907fddf252ad1be2c89b69c2b068fc378daa952ba7f163c4a11628f55a4df523b3ef9060200160405180910390a3505050565b600580546001600160a01b038381167fffffffffffffffffffffffff0000000000000000000000000000000000000000831681179093556040519116919082907f8be0079c531659141344cd1fd0a4f28419497f9722a3daafe3b4186f6b6457e090600090a35050565b600060208083528351808285015260005b81811015610de357858101830151858201604001528201610dc7565b506000604082860101526040601f19601f8301168501019250505092915050565b80356001600160a01b0381168114610e1b57600080fd5b919050565b60008060408385031215610e3357600080fd5b610e3c83610e04565b946020939093013593505050565b600080600060608486031215610e5f57600080fd5b610e6884610e04565b9250610e7660208501610e04565b9150604084013590509250925092565b600060208284031215610e9857600080fd5b5035919050565b600060208284031215610eb157600080fd5b610eba82610e04565b9392505050565b60008060408385031215610ed457600080fd5b610edd83610e04565b9150610eeb60208401610e04565b90509250929050565b600181811c90821680610f0857607f821691505b602082108103610f2857634e487b7160e01b600052602260045260246000fd5b50919050565b634e487b7160e01b600052601160045260246000fd5b8082018082111561034c5761034c610f2e565b8181038181111561034c5761034c610f2e56fea2646970667358221220ae047c1b607b969d6a3608d61928130e21dcd444c4bb914aa303f3aff00ca9df64736f6c63430008130033",
  "linkReferences": {},
  "deployedLinkReferences": {}
}