{
  "_format": "hh-sol-artifact-1",
  "contractName": "WorldWideLinkProtocol",
  "sourceName": "contracts/WorldWideLinkProtocol.sol",
  "abi": [
    {
      "inputs": [
        {
          "internalType": "address",
          "name": "_router",
          "type": "address"
        },
        {
          "internalType": "address",
          "name": "link",
          "type": "address"
        }
      ],
      "stateMutability": "nonpayable",
      "type": "constructor"
    },
    {
      "inputs": [
        {
          "internalType": "address",
          "name": "owner",
          "type": "address"
        },
        {
          "internalType": "uint256",
          "name": "value",
          "type": "uint256"
        }
      ],
      "name": "FailedToWithdrawEth",
      "type": "error"
    },
    {
      "inputs": [
        {
          "internalType": "uint256",
          "name": "providedIndex",
          "type": "uint256"
        },
        {
          "internalType": "uint256",
          "name": "maxIndex",
          "type": "uint256"
        }
      ],
      "name": "IndexOutOfBound",
      "type": "error"
    },
    {
      "inputs": [
        {
          "internalType": "address",
          "name": "router",
          "type": "address"
        }
      ],
      "name": "InvalidRouter",
      "type": "error"
    },
    {
      "inputs": [
        {
          "internalType": "bytes32",
          "name": "messageId",
          "type": "bytes32"
        }
      ],
      "name": "MessageIdNotExist",
      "type": "error"
    },
    {
      "inputs": [],
      "name": "NoMessageReceived",
      "type": "error"
    },
    {
      "inputs": [
        {
          "internalType": "uint256",
          "name": "",
          "type": "uint256"
        },
        {
          "internalType": "uint256",
          "name": "",
          "type": "uint256"
        }
      ],
      "name": "NotEnoughBalance",
      "type": "error"
    },
    {
      "inputs": [],
      "name": "NothingToWithdraw",
      "type": "error"
    },
    {
      "anonymous": false,
      "inputs": [
        {
          "indexed": true,
          "internalType": "bytes32",
          "name": "messageId",
          "type": "bytes32"
        },
        {
          "indexed": true,
          "internalType": "uint64",
          "name": "sourceChainSelector",
          "type": "uint64"
        },
        {
          "indexed": false,
          "internalType": "address",
          "name": "sender",
          "type": "address"
        },
        {
          "indexed": false,
          "internalType": "address",
          "name": "depositor",
          "type": "address"
        },
        {
          "components": [
            {
              "internalType": "address",
              "name": "token",
              "type": "address"
            },
            {
              "internalType": "uint256",
              "name": "amount",
              "type": "uint256"
            }
          ],
          "indexed": false,
          "internalType": "struct Client.EVMTokenAmount",
          "name": "tokenAmount",
          "type": "tuple"
        }
      ],
      "name": "MessageReceived",
      "type": "event"
    },
    {
      "anonymous": false,
      "inputs": [
        {
          "indexed": true,
          "internalType": "bytes32",
          "name": "messageId",
          "type": "bytes32"
        },
        {
          "indexed": true,
          "internalType": "uint64",
          "name": "destinationChainSelector",
          "type": "uint64"
        },
        {
          "indexed": false,
          "internalType": "address",
          "name": "receiver",
          "type": "address"
        },
        {
          "indexed": false,
          "internalType": "address",
          "name": "borrower",
          "type": "address"
        },
        {
          "components": [
            {
              "internalType": "address",
              "name": "token",
              "type": "address"
            },
            {
              "internalType": "uint256",
              "name": "amount",
              "type": "uint256"
            }
          ],
          "indexed": false,
          "internalType": "struct Client.EVMTokenAmount",
          "name": "tokenAmount",
          "type": "tuple"
        },
        {
          "indexed": false,
          "internalType": "uint256",
          "name": "fees",
          "type": "uint256"
        }
      ],
      "name": "MessageSent",
      "type": "event"
    },
    {
      "anonymous": false,
      "inputs": [
        {
          "indexed": true,
          "internalType": "address",
          "name": "from",
          "type": "address"
        },
        {
          "indexed": true,
          "internalType": "address",
          "name": "to",
          "type": "address"
        }
      ],
      "name": "OwnershipTransferRequested",
      "type": "event"
    },
    {
      "anonymous": false,
      "inputs": [
        {
          "indexed": true,
          "internalType": "address",
          "name": "from",
          "type": "address"
        },
        {
          "indexed": true,
          "internalType": "address",
          "name": "to",
          "type": "address"
        }
      ],
      "name": "OwnershipTransferred",
      "type": "event"
    },
    {
      "inputs": [],
      "name": "acceptOwnership",
      "outputs": [],
      "stateMutability": "nonpayable",
      "type": "function"
    },
    {
      "inputs": [
        {
          "internalType": "bytes32",
          "name": "msgId",
          "type": "bytes32"
        }
      ],
      "name": "borrowUSDC",
      "outputs": [
        {
          "internalType": "uint256",
          "name": "",
          "type": "uint256"
        }
      ],
      "stateMutability": "nonpayable",
      "type": "function"
    },
    {
      "inputs": [
        {
          "internalType": "address",
          "name": "",
          "type": "address"
        },
        {
          "internalType": "address",
          "name": "",
          "type": "address"
        }
      ],
      "name": "borrowings",
      "outputs": [
        {
          "internalType": "uint256",
          "name": "",
          "type": "uint256"
        }
      ],
      "stateMutability": "view",
      "type": "function"
    },
    {
      "inputs": [
        {
          "components": [
            {
              "internalType": "bytes32",
              "name": "messageId",
              "type": "bytes32"
            },
            {
              "internalType": "uint64",
              "name": "sourceChainSelector",
              "type": "uint64"
            },
            {
              "internalType": "bytes",
              "name": "sender",
              "type": "bytes"
            },
            {
              "internalType": "bytes",
              "name": "data",
              "type": "bytes"
            },
            {
              "components": [
                {
                  "internalType": "address",
                  "name": "token",
                  "type": "address"
                },
                {
                  "internalType": "uint256",
                  "name": "amount",
                  "type": "uint256"
                }
              ],
              "internalType": "struct Client.EVMTokenAmount[]",
              "name": "destTokenAmounts",
              "type": "tuple[]"
            }
          ],
          "internalType": "struct Client.Any2EVMMessage",
          "name": "message",
          "type": "tuple"
        }
      ],
      "name": "ccipReceive",
      "outputs": [],
      "stateMutability": "nonpayable",
      "type": "function"
    },
    {
      "inputs": [
        {
          "internalType": "address",
          "name": "",
          "type": "address"
        },
        {
          "internalType": "address",
          "name": "",
          "type": "address"
        }
      ],
      "name": "deposits",
      "outputs": [
        {
          "internalType": "uint256",
          "name": "",
          "type": "uint256"
        }
      ],
      "stateMutability": "view",
      "type": "function"
    },
    {
      "inputs": [],
      "name": "getLastReceivedMessageDetails",
      "outputs": [
        {
          "internalType": "bytes32",
          "name": "messageId",
          "type": "bytes32"
        },
        {
          "internalType": "uint64",
          "name": "",
          "type": "uint64"
        },
        {
          "internalType": "address",
          "name": "",
          "type": "address"
        },
        {
          "internalType": "address",
          "name": "",
          "type": "address"
        },
        {
          "internalType": "address",
          "name": "",
          "type": "address"
        },
        {
          "internalType": "uint256",
          "name": "",
          "type": "uint256"
        }
      ],
      "stateMutability": "view",
      "type": "function"
    },
    {
      "inputs": [],
      "name": "getNumberOfReceivedMessages",
      "outputs": [
        {
          "internalType": "uint256",
          "name": "number",
          "type": "uint256"
        }
      ],
      "stateMutability": "view",
      "type": "function"
    },
    {
      "inputs": [
        {
          "internalType": "bytes32",
          "name": "messageId",
          "type": "bytes32"
        }
      ],
      "name": "getReceivedMessageDetails",
      "outputs": [
        {
          "internalType": "uint64",
          "name": "",
          "type": "uint64"
        },
        {
          "internalType": "address",
          "name": "",
          "type": "address"
        },
        {
          "internalType": "address",
          "name": "",
          "type": "address"
        },
        {
          "internalType": "address",
          "name": "token",
          "type": "address"
        },
        {
          "internalType": "uint256",
          "name": "amount",
          "type": "uint256"
        }
      ],
      "stateMutability": "view",
      "type": "function"
    },
    {
      "inputs": [],
      "name": "getRouter",
      "outputs": [
        {
          "internalType": "address",
          "name": "",
          "type": "address"
        }
      ],
      "stateMutability": "view",
      "type": "function"
    },
    {
      "inputs": [
        {
          "internalType": "uint64",
          "name": "destChainSelector",
          "type": "uint64"
        }
      ],
      "name": "isChainSupported",
      "outputs": [
        {
          "internalType": "bool",
          "name": "supported",
          "type": "bool"
        }
      ],
      "stateMutability": "view",
      "type": "function"
    },
    {
      "inputs": [
        {
          "internalType": "bytes32",
          "name": "",
          "type": "bytes32"
        }
      ],
      "name": "messageDetail",
      "outputs": [
        {
          "internalType": "uint64",
          "name": "sourceChainSelector",
          "type": "uint64"
        },
        {
          "internalType": "address",
          "name": "sender",
          "type": "address"
        },
        {
          "internalType": "address",
          "name": "depositor",
          "type": "address"
        },
        {
          "internalType": "address",
          "name": "token",
          "type": "address"
        },
        {
          "internalType": "uint256",
          "name": "amount",
          "type": "uint256"
        }
      ],
      "stateMutability": "view",
      "type": "function"
    },
    {
      "inputs": [],
      "name": "owner",
      "outputs": [
        {
          "internalType": "address",
          "name": "",
          "type": "address"
        }
      ],
      "stateMutability": "view",
      "type": "function"
    },
    {
      "inputs": [
        {
          "internalType": "uint256",
          "name": "",
          "type": "uint256"
        }
      ],
      "name": "receivedMessages",
      "outputs": [
        {
          "internalType": "bytes32",
          "name": "",
          "type": "bytes32"
        }
      ],
      "stateMutability": "view",
      "type": "function"
    },
    {
      "inputs": [
        {
          "internalType": "uint256",
          "name": "amount",
          "type": "uint256"
        },
        {
          "internalType": "uint64",
          "name": "destinationChain",
          "type": "uint64"
        },
        {
          "internalType": "address",
          "name": "receiver",
          "type": "address"
        },
        {
          "internalType": "bytes32",
          "name": "msgId",
          "type": "bytes32"
        }
      ],
      "name": "repayAndSendMessage",
      "outputs": [],
      "stateMutability": "nonpayable",
      "type": "function"
    },
    {
      "inputs": [
        {
          "internalType": "bytes4",
          "name": "interfaceId",
          "type": "bytes4"
        }
      ],
      "name": "supportsInterface",
      "outputs": [
        {
          "internalType": "bool",
          "name": "",
          "type": "bool"
        }
      ],
      "stateMutability": "pure",
      "type": "function"
    },
    {
      "inputs": [
        {
          "internalType": "address",
          "name": "to",
          "type": "address"
        }
      ],
      "name": "transferOwnership",
      "outputs": [],
      "stateMutability": "nonpayable",
      "type": "function"
    },
    {
      "inputs": [],
      "name": "usdcToken",
      "outputs": [
        {
          "internalType": "contract MockUSDC",
          "name": "",
          "type": "address"
        }
      ],
      "stateMutability": "view",
      "type": "function"
    },
    {
      "inputs": [],
      "name": "withdraw",
      "outputs": [],
      "stateMutability": "nonpayable",
      "type": "function"
    },
    {
      "inputs": [
        {
          "internalType": "address",
          "name": "token",
          "type": "address"
        }
      ],
      "name": "withdrawToken",
      "outputs": [],
      "stateMutability": "nonpayable",
      "type": "function"
    },
    {
      "stateMutability": "payable",
      "type": "receive"
    }
  ],
  "bytecode": "0x60a06040523480156200001157600080fd5b50604051620035e6380380620035e6833981016040819052620000349162000243565b33806000846001600160a01b03811662000069576040516335fdcccd60e21b8152600060048201526024015b60405180910390fd5b6001600160a01b039081166080528216620000c75760405162461bcd60e51b815260206004820152601860248201527f43616e6e6f7420736574206f776e657220746f207a65726f0000000000000000604482015260640162000060565b600080546001600160a01b0319166001600160a01b0384811691909117909155811615620000fa57620000fa816200016d565b5050600780546001600160a01b0319166001600160a01b03841617905550604051620001269062000218565b604051809103906000f08015801562000143573d6000803e3d6000fd5b50600680546001600160a01b0319166001600160a01b0392909216919091179055506200027b9050565b336001600160a01b03821603620001c75760405162461bcd60e51b815260206004820152601760248201527f43616e6e6f74207472616e7366657220746f2073656c66000000000000000000604482015260640162000060565b600180546001600160a01b0319166001600160a01b0383811691821790925560008054604051929316917fed8889f560326eb138920d842192f0eb3dd22b4f139c87a2c57538e05bae12789190a350565b61120b80620023db83390190565b80516001600160a01b03811681146200023e57600080fd5b919050565b600080604083850312156200025757600080fd5b620002628362000226565b9150620002726020840162000226565b90509250929050565b60805161213d6200029e6000396000818161046f0152610ed8015261213d6000f3fe6080604052600436106101485760003560e01c806379ba5097116100c05780639c3ddb2e11610074578063b0f479a111610059578063b0f479a114610460578063d030366c14610493578063f2fde38b146104b357600080fd5b80639c3ddb2e146103d6578063a48a90581461044057600080fd5b806389476069116100a557806389476069146103605780638da5cb5b146103805780638f601f661461039e57600080fd5b806379ba50971461032b57806385572ffb1461034057600080fd5b806330dd9edd116101175780634bca6ecf116100fc5780634bca6ecf14610271578063507f4035146102a957806351bd6698146102c957600080fd5b806330dd9edd1461023a5780633ccfd60b1461025a57600080fd5b806301ffc9a7146101545780630b652d6d1461018957806311eac855146101a8578063263596a5146101e057600080fd5b3661014f57005b600080fd5b34801561016057600080fd5b5061017461016f3660046119ce565b6104d3565b60405190151581526020015b60405180910390f35b34801561019557600080fd5b506002545b604051908152602001610180565b3480156101b457600080fd5b506006546101c8906001600160a01b031681565b6040516001600160a01b039091168152602001610180565b3480156101ec57600080fd5b506101f561056c565b6040805196875267ffffffffffffffff90951660208701526001600160a01b0393841694860194909452908216606085015216608083015260a082015260c001610180565b34801561024657600080fd5b5061019a610255366004611a17565b610662565b34801561026657600080fd5b5061026f61091d565b005b34801561027d57600080fd5b5061019a61028c366004611a45565b600560209081526000928352604080842090915290825290205481565b3480156102b557600080fd5b5061026f6102c4366004611a9b565b6109b6565b3480156102d557600080fd5b506102e96102e4366004611a17565b610d3d565b6040805167ffffffffffffffff90961686526001600160a01b03948516602087015292841692850192909252919091166060830152608082015260a001610180565b34801561033757600080fd5b5061026f610e0f565b34801561034c57600080fd5b5061026f61035b366004611ae1565b610ecd565b34801561036c57600080fd5b5061026f61037b366004611b1c565b610f45565b34801561038c57600080fd5b506000546001600160a01b03166101c8565b3480156103aa57600080fd5b5061019a6103b9366004611a45565b600460209081526000928352604080842090915290825290205481565b3480156103e257600080fd5b506102e96103f1366004611a17565b6003602081905260009182526040909120805460018201546002830154929093015467ffffffffffffffff8216936001600160a01b036801000000000000000090930483169390831692169085565b34801561044c57600080fd5b5061017461045b366004611b39565b61104a565b34801561046c57600080fd5b507f00000000000000000000000000000000000000000000000000000000000000006101c8565b34801561049f57600080fd5b5061019a6104ae366004611a17565b61113b565b3480156104bf57600080fd5b5061026f6104ce366004611b1c565b61115c565b60007fffffffff0000000000000000000000000000000000000000000000000000000082167f85572ffb00000000000000000000000000000000000000000000000000000000148061056657507fffffffff0000000000000000000000000000000000000000000000000000000082167f01ffc9a700000000000000000000000000000000000000000000000000000000145b92915050565b6000806000806000806002805490506000036105b4576040517f6ad69dd500000000000000000000000000000000000000000000000000000000815260040160405180910390fd5b600280546105c490600190611b6a565b815481106105d4576105d4611b7d565b6000918252602080832091909101548083526003808352604093849020845160a081018652815467ffffffffffffffff8116808352680100000000000000009091046001600160a01b03908116968301879052600184015481169783018890526002840154166060830181905292909301546080909101819052929b919a5092985092965090945092509050565b3360009081526005602090815260408083206006546001600160a01b0316845290915281205480156106db5760405162461bcd60e51b815260206004820181905260248201527f43616c6c65722068617320616c726561647920626f72726f776564205553444360448201526064015b60405180910390fd5b6000838152600360205260409020600201546001600160a01b0316806107695760405162461bcd60e51b815260206004820152602560248201527f43616c6c657220686173206e6f74207472616e7366657272656420746869732060448201527f746f6b656e00000000000000000000000000000000000000000000000000000060648201526084016106d2565b3360009081526004602090815260408083206001600160a01b038516845290915281205490606461079b836046611b93565b6107a59190611baa565b9050600073c0f82a46033b8bdba4bb0b0e28bc2006f64355bc90506000816001600160a01b031663feaf968c6040518163ffffffff1660e01b815260040160a060405180830381865afa158015610800573d6000803e3d6000fd5b505050506040513d601f19601f820116820180604052508101906108249190611be6565b5050509150506000816402540be40061083d9190611c36565b9050600061084b8286611b93565b6006546040517f40c10f19000000000000000000000000000000000000000000000000000000008152336004820152602481018390529192506001600160a01b0316906340c10f1990604401600060405180830381600087803b1580156108b157600080fd5b505af11580156108c5573d6000803e3d6000fd5b5050336000908152600560209081526040808320600680546001600160a01b039081168652828552838620899055905416845290915290205483149150610910905057610910611c82565b9998505050505050505050565b61092561116d565b6040514790600090339083908381818185875af1925050503d8060008114610969576040519150601f19603f3d011682016040523d82523d6000602084013e61096e565b606091505b50509050806109b2576040517f0cd90037000000000000000000000000000000000000000000000000000000008152336004820152602481018390526044016106d2565b5050565b3360009081526005602090815260408083206006546001600160a01b03168452909152902054841015610a515760405162461bcd60e51b815260206004820152602d60248201527f52657061796d656e7420616d6f756e74206973206c657373207468616e20616d60448201527f6f756e7420626f72726f7765640000000000000000000000000000000000000060648201526084016106d2565b6000818152600360209081526040808320600201543380855260048085528386206001600160a01b0393841680885295528386205460065494516370a0823160e01b815291820192909252939490939092909116906370a0823190602401602060405180830381865afa158015610acc573d6000803e3d6000fd5b505050506040513d601f19601f82011682018060405250810190610af09190611c98565b905086811015610b685760405162461bcd60e51b815260206004820152603660248201527f43616c6c65722773205553444320746f6b656e2062616c616e636520696e737560448201527f6666696369656e7420666f722072657061796d656e740000000000000000000060648201526084016106d2565b3360008181526005602090815260408083206006546001600160a01b03168085529252918290205491517fdd62ed3e0000000000000000000000000000000000000000000000000000000081526004810193909352306024840152909163dd62ed3e90604401602060405180830381865afa158015610beb573d6000803e3d6000fd5b505050506040513d601f19601f82011682018060405250810190610c0f9190611c98565b1015610c835760405162461bcd60e51b815260206004820152602f60248201527f50726f746f636f6c20616c6c6f77616e6365206973206c657373207468616e2060448201527f616d6f756e7420626f72726f776564000000000000000000000000000000000060648201526084016106d2565b6006546040517f79cc6790000000000000000000000000000000000000000000000000000000008152336004820152602481018390526001600160a01b03909116906379cc679090604401600060405180830381600087803b158015610ce857600080fd5b505af1158015610cfc573d6000803e3d6000fd5b50503360009081526005602090815260408083206006546001600160a01b0316845290915281205550610d339050868685856111c9565b5050505050505050565b6000818152600360208181526040808420815160a081018352815467ffffffffffffffff811682526001600160a01b036801000000000000000090910481169482018590526001830154811693820193909352600282015490921660608301529092015460808301528291829182918291610de7576040517f4d47bb33000000000000000000000000000000000000000000000000000000008152600481018890526024016106d2565b8051602082015160408301516060840151608090940151929a91995097509195509350915050565b6001546001600160a01b03163314610e695760405162461bcd60e51b815260206004820152601660248201527f4d7573742062652070726f706f736564206f776e65720000000000000000000060448201526064016106d2565b600080543373ffffffffffffffffffffffffffffffffffffffff19808316821784556001805490911690556040516001600160a01b0390921692909183917f8be0079c531659141344cd1fd0a4f28419497f9722a3daafe3b4186f6b6457e091a350565b336001600160a01b037f00000000000000000000000000000000000000000000000000000000000000001614610f31576040517fd7f733340000000000000000000000000000000000000000000000000000000081523360048201526024016106d2565b610f42610f3d82611e61565b61168f565b50565b610f4d61116d565b6040516370a0823160e01b81523060048201526000906001600160a01b038316906370a0823190602401602060405180830381865afa158015610f94573d6000803e3d6000fd5b505050506040513d601f19601f82011682018060405250810190610fb89190611c98565b6040517fa9059cbb000000000000000000000000000000000000000000000000000000008152336004820152602481018290529091506001600160a01b0383169063a9059cbb906044016020604051808303816000875af1158015611021573d6000803e3d6000fd5b505050506040513d601f19601f820116820180604052508101906110459190611f0e565b505050565b6000306001600160a01b031663b0f479a16040518163ffffffff1660e01b8152600401602060405180830381865afa15801561108a573d6000803e3d6000fd5b505050506040513d601f19601f820116820180604052508101906110ae9190611f30565b6040517fa48a905800000000000000000000000000000000000000000000000000000000815267ffffffffffffffff841660048201526001600160a01b03919091169063a48a905890602401602060405180830381865afa158015611117573d6000803e3d6000fd5b505050506040513d601f19601f820116820180604052508101906105669190611f0e565b6002818154811061114b57600080fd5b600091825260209091200154905081565b61116461116d565b610f4281611918565b6000546001600160a01b031633146111c75760405162461bcd60e51b815260206004820152601660248201527f4f6e6c792063616c6c61626c65206279206f776e65720000000000000000000060448201526064016106d2565b565b60408051600180825281830190925260009133918391816020015b60408051808201909152600080825260208201528152602001906001900390816111e457905050905060006040518060400160405280876001600160a01b03168152602001868152509050808260008151811061124357611243611b7d565b60209081029190910101526040805160a081019091526001600160a01b03881660c08201526000908060e081016040516020818303038152906040528152602001856040516020016112a491906001600160a01b0391909116815260200190565b60408051601f1981840301815291815290825260208083018790526007546001600160a01b0316838301528151808301835262030d4080825260009183019182528351602481019190915290511515604480830191909152835180830390910181526064909101909252810180517bffffffffffffffffffffffffffffffffffffffffffffffffffffffff167f97a657c90000000000000000000000000000000000000000000000000000000017905260609091019081525090506000306001600160a01b031663b0f479a16040518163ffffffff1660e01b8152600401602060405180830381865afa15801561139f573d6000803e3d6000fd5b505050506040513d601f19601f820116820180604052508101906113c39190611f30565b90506000816001600160a01b03166320487ded8c856040518363ffffffff1660e01b81526004016113f5929190611f93565b602060405180830381865afa158015611412573d6000803e3d6000fd5b505050506040513d601f19601f820116820180604052508101906114369190611c98565b60075460405163095ea7b360e01b81526001600160a01b0385811660048301526024820184905292935091169063095ea7b3906044016020604051808303816000875af115801561148b573d6000803e3d6000fd5b505050506040513d601f19601f820116820180604052508101906114af9190611f0e565b5060405163095ea7b360e01b81526001600160a01b038381166004830152602482018a90528a169063095ea7b3906044016020604051808303816000875af11580156114ff573d6000803e3d6000fd5b505050506040513d601f19601f820116820180604052508101906115239190611f0e565b61156f5760405162461bcd60e51b815260206004820152601860248201527f4661696c656420746f20617070726f766520726f75746572000000000000000060448201526064016106d2565b6040517f96f4e9f90000000000000000000000000000000000000000000000000000000081526001600160a01b038316906396f4e9f9906115b6908e908790600401611f93565b6020604051808303816000875af11580156115d5573d6000803e3d6000fd5b505050506040513d601f19601f820116820180604052508101906115f99190611c98565b96508a67ffffffffffffffff16877f2203b02ed2b5012803d6fecd082627e1cf6906cbfc26b50528c0c8bdc3a326468c89888660405161163c9493929190612075565b60405180910390a36001600160a01b038087166000908152600460209081526040808320938d16835292905290812080548a929061167b908490611b6a565b90915550505050505050505b949350505050565b80516020808301516040840151805191926000926116b39290810182019101611f30565b9050600084606001518060200190518101906116cf9190611f30565b90506000856080015190506000816000815181106116ef576116ef611b7d565b602002602001015160000151905060008260008151811061171257611712611b7d565b6020026020010151602001519050600287908060018154018082558091505060019003906000526020600020016000909190919091505560006040518060a001604052808867ffffffffffffffff168152602001876001600160a01b03168152602001866001600160a01b03168152602001846001600160a01b0316815260200183815250905080600360008a815260200190815260200160002060008201518160000160006101000a81548167ffffffffffffffff021916908367ffffffffffffffff16021790555060208201518160000160086101000a8154816001600160a01b0302191690836001600160a01b0316021790555060408201518160010160006101000a8154816001600160a01b0302191690836001600160a01b0316021790555060608201518160020160006101000a8154816001600160a01b0302191690836001600160a01b03160217905550608082015181600301559050508667ffffffffffffffff16887fb8387be1e3a7f6676cc5eb93b06b8912fd99545cd542e6296b2db1d0fd82cacd8888886000815181106118b2576118b2611b7d565b60200260200101516040516118c9939291906120bc565b60405180910390a36001600160a01b038086166000908152600460209081526040808320938716835292905290812080548492906119089084906120f4565b9091555050505050505050505050565b336001600160a01b038216036119705760405162461bcd60e51b815260206004820152601760248201527f43616e6e6f74207472616e7366657220746f2073656c6600000000000000000060448201526064016106d2565b6001805473ffffffffffffffffffffffffffffffffffffffff19166001600160a01b0383811691821790925560008054604051929316917fed8889f560326eb138920d842192f0eb3dd22b4f139c87a2c57538e05bae12789190a350565b6000602082840312156119e057600080fd5b81357fffffffff0000000000000000000000000000000000000000000000000000000081168114611a1057600080fd5b9392505050565b600060208284031215611a2957600080fd5b5035919050565b6001600160a01b0381168114610f4257600080fd5b60008060408385031215611a5857600080fd5b8235611a6381611a30565b91506020830135611a7381611a30565b809150509250929050565b803567ffffffffffffffff81168114611a9657600080fd5b919050565b60008060008060808587031215611ab157600080fd5b84359350611ac160208601611a7e565b92506040850135611ad181611a30565b9396929550929360600135925050565b600060208284031215611af357600080fd5b813567ffffffffffffffff811115611b0a57600080fd5b820160a08185031215611a1057600080fd5b600060208284031215611b2e57600080fd5b8135611a1081611a30565b600060208284031215611b4b57600080fd5b611a1082611a7e565b634e487b7160e01b600052601160045260246000fd5b8181038181111561056657610566611b54565b634e487b7160e01b600052603260045260246000fd5b808202811582820484141761056657610566611b54565b600082611bc757634e487b7160e01b600052601260045260246000fd5b500490565b805169ffffffffffffffffffff81168114611a9657600080fd5b600080600080600060a08688031215611bfe57600080fd5b611c0786611bcc565b9450602086015193506040860151925060608601519150611c2a60808701611bcc565b90509295509295909350565b808202600082127f800000000000000000000000000000000000000000000000000000000000000084141615611c6e57611c6e611b54565b818105831482151761056657610566611b54565b634e487b7160e01b600052600160045260246000fd5b600060208284031215611caa57600080fd5b5051919050565b634e487b7160e01b600052604160045260246000fd5b6040805190810167ffffffffffffffff81118282101715611cea57611cea611cb1565b60405290565b60405160a0810167ffffffffffffffff81118282101715611cea57611cea611cb1565b604051601f8201601f1916810167ffffffffffffffff81118282101715611d3c57611d3c611cb1565b604052919050565b600082601f830112611d5557600080fd5b813567ffffffffffffffff811115611d6f57611d6f611cb1565b611d82601f8201601f1916602001611d13565b818152846020838601011115611d9757600080fd5b816020850160208301376000918101602001919091529392505050565b600082601f830112611dc557600080fd5b8135602067ffffffffffffffff821115611de157611de1611cb1565b611def818360051b01611d13565b82815260069290921b84018101918181019086841115611e0e57600080fd5b8286015b84811015611e565760408189031215611e2b5760008081fd5b611e33611cc7565b8135611e3e81611a30565b81528185013585820152835291830191604001611e12565b509695505050505050565b600060a08236031215611e7357600080fd5b611e7b611cf0565b82358152611e8b60208401611a7e565b6020820152604083013567ffffffffffffffff80821115611eab57600080fd5b611eb736838701611d44565b60408401526060850135915080821115611ed057600080fd5b611edc36838701611d44565b60608401526080850135915080821115611ef557600080fd5b50611f0236828601611db4565b60808301525092915050565b600060208284031215611f2057600080fd5b81518015158114611a1057600080fd5b600060208284031215611f4257600080fd5b8151611a1081611a30565b6000815180845260005b81811015611f7357602081850181015186830182015201611f57565b506000602082860101526020601f19601f83011685010191505092915050565b6000604067ffffffffffffffff8516835260208181850152845160a083860152611fc060e0860182611f4d565b905081860151603f1980878403016060880152611fdd8383611f4d565b88860151888203830160808a01528051808352908601945060009350908501905b808410156120385761202482865180516001600160a01b03168252602090810151910152565b938501936001939093019290860190611ffe565b5060608901516001600160a01b031660a08901526080890151888203830160c08a015295506120678187611f4d565b9a9950505050505050505050565b6001600160a01b0385811682528416602082015260a081016120ad604083018580516001600160a01b03168252602090810151910152565b82608083015295945050505050565b6001600160a01b0384811682528316602082015260808101611687604083018480516001600160a01b03168252602090810151910152565b8082018082111561056657610566611b5456fea264697066735822122053dab4404a4c7ee5dc6b59a69595f924be47beb629ae5ab4cb45e33d0768307464736f6c6343000813003360806040523480156200001157600080fd5b50604051806040016040528060088152602001674d6f636b5553444360c01b815250604051806040016040528060058152602001644d5553444360d81b81525081600390816200006291906200018f565b5060046200007182826200018f565b5050506200008e620000886200009460201b60201c565b62000098565b6200025b565b3390565b600580546001600160a01b038381166001600160a01b0319831681179093556040519116919082907f8be0079c531659141344cd1fd0a4f28419497f9722a3daafe3b4186f6b6457e090600090a35050565b634e487b7160e01b600052604160045260246000fd5b600181811c908216806200011557607f821691505b6020821081036200013657634e487b7160e01b600052602260045260246000fd5b50919050565b601f8211156200018a57600081815260208120601f850160051c81016020861015620001655750805b601f850160051c820191505b81811015620001865782815560010162000171565b5050505b505050565b81516001600160401b03811115620001ab57620001ab620000ea565b620001c381620001bc845462000100565b846200013c565b602080601f831160018114620001fb5760008415620001e25750858301515b600019600386901b1c1916600185901b17855562000186565b600085815260208120601f198616915b828110156200022c578886015182559484019460019091019084016200020b565b50858210156200024b5787850151600019600388901b60f8161c191681555b5050505050600190811b01905550565b610fa0806200026b6000396000f3fe608060405234801561001057600080fd5b506004361061011b5760003560e01c806370a08231116100b257806395d89b4111610081578063a9059cbb11610066578063a9059cbb1461024a578063dd62ed3e1461025d578063f2fde38b1461029657600080fd5b806395d89b411461022f578063a457c2d71461023757600080fd5b806370a08231146101d0578063715018a6146101f957806379cc6790146102015780638da5cb5b1461021457600080fd5b8063313ce567116100ee578063313ce56714610186578063395093511461019557806340c10f19146101a857806342966c68146101bd57600080fd5b806306fdde0314610120578063095ea7b31461013e57806318160ddd1461016157806323b872dd14610173575b600080fd5b6101286102a9565b6040516101359190610db6565b60405180910390f35b61015161014c366004610e20565b61033b565b6040519015158152602001610135565b6002545b604051908152602001610135565b610151610181366004610e4a565b610352565b60405160128152602001610135565b6101516101a3366004610e20565b610416565b6101bb6101b6366004610e20565b610452565b005b6101bb6101cb366004610e86565b6104ba565b6101656101de366004610e9f565b6001600160a01b031660009081526020819052604090205490565b6101bb6104c7565b6101bb61020f366004610e20565b61052d565b6005546040516001600160a01b039091168152602001610135565b6101286105cc565b610151610245366004610e20565b6105db565b610151610258366004610e20565b61068c565b61016561026b366004610ec1565b6001600160a01b03918216600090815260016020908152604080832093909416825291909152205490565b6101bb6102a4366004610e9f565b610699565b6060600380546102b890610ef4565b80601f01602080910402602001604051908101604052809291908181526020018280546102e490610ef4565b80156103315780601f1061030657610100808354040283529160200191610331565b820191906000526020600020905b81548152906001019060200180831161031457829003601f168201915b5050505050905090565b6000610348338484610778565b5060015b92915050565b600061035f8484846108d0565b6001600160a01b0384166000908152600160209081526040808320338452909152902054828110156103fe5760405162461bcd60e51b815260206004820152602860248201527f45524332303a207472616e7366657220616d6f756e742065786365656473206160448201527f6c6c6f77616e636500000000000000000000000000000000000000000000000060648201526084015b60405180910390fd5b61040b8533858403610778565b506001949350505050565b3360008181526001602090815260408083206001600160a01b0387168452909152812054909161034891859061044d908690610f44565b610778565b6005546001600160a01b031633146104ac5760405162461bcd60e51b815260206004820181905260248201527f4f776e61626c653a2063616c6c6572206973206e6f7420746865206f776e657260448201526064016103f5565b6104b68282610ae8565b5050565b6104c43382610bc7565b50565b6005546001600160a01b031633146105215760405162461bcd60e51b815260206004820181905260248201527f4f776e61626c653a2063616c6c6572206973206e6f7420746865206f776e657260448201526064016103f5565b61052b6000610d4c565b565b6000610539833361026b565b9050818110156105b05760405162461bcd60e51b8152602060048201526024808201527f45524332303a206275726e20616d6f756e74206578636565647320616c6c6f7760448201527f616e63650000000000000000000000000000000000000000000000000000000060648201526084016103f5565b6105bd8333848403610778565b6105c78383610bc7565b505050565b6060600480546102b890610ef4565b3360009081526001602090815260408083206001600160a01b0386168452909152812054828110156106755760405162461bcd60e51b815260206004820152602560248201527f45524332303a2064656372656173656420616c6c6f77616e63652062656c6f7760448201527f207a65726f00000000000000000000000000000000000000000000000000000060648201526084016103f5565b6106823385858403610778565b5060019392505050565b60006103483384846108d0565b6005546001600160a01b031633146106f35760405162461bcd60e51b815260206004820181905260248201527f4f776e61626c653a2063616c6c6572206973206e6f7420746865206f776e657260448201526064016103f5565b6001600160a01b03811661076f5760405162461bcd60e51b815260206004820152602660248201527f4f776e61626c653a206e6577206f776e657220697320746865207a65726f206160448201527f646472657373000000000000000000000000000000000000000000000000000060648201526084016103f5565b6104c481610d4c565b6001600160a01b0383166107f35760405162461bcd60e51b8152602060048201526024808201527f45524332303a20617070726f76652066726f6d20746865207a65726f2061646460448201527f726573730000000000000000000000000000000000000000000000000000000060648201526084016103f5565b6001600160a01b03821661086f5760405162461bcd60e51b815260206004820152602260248201527f45524332303a20617070726f766520746f20746865207a65726f20616464726560448201527f737300000000000000000000000000000000000000000000000000000000000060648201526084016103f5565b6001600160a01b0383811660008181526001602090815260408083209487168084529482529182902085905590518481527f8c5be1e5ebec7d5bd14f71427d1e84f3dd0314c0f7b2291e5b200ac8c7c3b925910160405180910390a3505050565b6001600160a01b03831661094c5760405162461bcd60e51b815260206004820152602560248201527f45524332303a207472616e736665722066726f6d20746865207a65726f20616460448201527f647265737300000000000000000000000000000000000000000000000000000060648201526084016103f5565b6001600160a01b0382166109c85760405162461bcd60e51b815260206004820152602360248201527f45524332303a207472616e7366657220746f20746865207a65726f206164647260448201527f657373000000000000000000000000000000000000000000000000000000000060648201526084016103f5565b6001600160a01b03831660009081526020819052604090205481811015610a575760405162461bcd60e51b815260206004820152602660248201527f45524332303a207472616e7366657220616d6f756e742065786365656473206260448201527f616c616e6365000000000000000000000000000000000000000000000000000060648201526084016103f5565b6001600160a01b03808516600090815260208190526040808220858503905591851681529081208054849290610a8e908490610f44565b92505081905550826001600160a01b0316846001600160a01b03167fddf252ad1be2c89b69c2b068fc378daa952ba7f163c4a11628f55a4df523b3ef84604051610ada91815260200190565b60405180910390a350505050565b6001600160a01b038216610b3e5760405162461bcd60e51b815260206004820152601f60248201527f45524332303a206d696e7420746f20746865207a65726f20616464726573730060448201526064016103f5565b8060026000828254610b509190610f44565b90915550506001600160a01b03821660009081526020819052604081208054839290610b7d908490610f44565b90915550506040518181526001600160a01b038316906000907fddf252ad1be2c89b69c2b068fc378daa952ba7f163c4a11628f55a4df523b3ef9060200160405180910390a35050565b6001600160a01b038216610c435760405162461bcd60e51b815260206004820152602160248201527f45524332303a206275726e2066726f6d20746865207a65726f2061646472657360448201527f730000000000000000000000000000000000000000000000000000000000000060648201526084016103f5565b6001600160a01b03821660009081526020819052604090205481811015610cd25760405162461bcd60e51b815260206004820152602260248201527f45524332303a206275726e20616d6f756e7420657863656564732062616c616e60448201527f636500000000000000000000000000000000000000000000000000000000000060648201526084016103f5565b6001600160a01b0383166000908152602081905260408120838303905560028054849290610d01908490610f57565b90915550506040518281526000906001600160a01b038516907fddf252ad1be2c89b69c2b068fc378daa952ba7f163c4a11628f55a4df523b3ef9060200160405180910390a3505050565b600580546001600160a01b038381167fffffffffffffffffffffffff0000000000000000000000000000000000000000831681179093556040519116919082907f8be0079c531659141344cd1fd0a4f28419497f9722a3daafe3b4186f6b6457e090600090a35050565b600060208083528351808285015260005b81811015610de357858101830151858201604001528201610dc7565b506000604082860101526040601f19601f8301168501019250505092915050565b80356001600160a01b0381168114610e1b57600080fd5b919050565b60008060408385031215610e3357600080fd5b610e3c83610e04565b946020939093013593505050565b600080600060608486031215610e5f57600080fd5b610e6884610e04565b9250610e7660208501610e04565b9150604084013590509250925092565b600060208284031215610e9857600080fd5b5035919050565b600060208284031215610eb157600080fd5b610eba82610e04565b9392505050565b60008060408385031215610ed457600080fd5b610edd83610e04565b9150610eeb60208401610e04565b90509250929050565b600181811c90821680610f0857607f821691505b602082108103610f2857634e487b7160e01b600052602260045260246000fd5b50919050565b634e487b7160e01b600052601160045260246000fd5b8082018082111561034c5761034c610f2e565b8181038181111561034c5761034c610f2e56fea26469706673582212207b2071da2e00d3feaea1493da669650a488ad5c8023716563247db601b61be9864736f6c63430008130033",
  "linkReferences": {},
  "deployedLinkReferences": {}
}