{
  "_format": "hh-sol-artifact-1",
  "contractName": "TokenTransferor",
  "sourceName": "contracts/TokenTransferor.sol",
  "abi": [
    {
      "inputs": [
        {
          "internalType": "address",
          "name": "_router",
          "type": "address"
        },
        {
          "internalType": "address",
          "name": "_link",
          "type": "address"
        }
      ],
      "stateMutability": "nonpayable",
      "type": "constructor"
    },
    {
      "inputs": [
        {
          "internalType": "uint64",
          "name": "destinationChainSelector",
          "type": "uint64"
        }
      ],
      "name": "DestinationChainNotAllowlisted",
      "type": "error"
    },
    {
      "inputs": [
        {
          "internalType": "address",
          "name": "owner",
          "type": "address"
        },
        {
          "internalType": "address",
          "name": "target",
          "type": "address"
        },
        {
          "internalType": "uint256",
          "name": "value",
          "type": "uint256"
        }
      ],
      "name": "FailedToWithdrawEth",
      "type": "error"
    },
    {
      "inputs": [
        {
          "internalType": "uint256",
          "name": "currentBalance",
          "type": "uint256"
        },
        {
          "internalType": "uint256",
          "name": "calculatedFees",
          "type": "uint256"
        }
      ],
      "name": "NotEnoughBalance",
      "type": "error"
    },
    {
      "inputs": [],
      "name": "NothingToWithdraw",
      "type": "error"
    },
    {
      "anonymous": false,
      "inputs": [
        {
          "indexed": true,
          "internalType": "address",
          "name": "from",
          "type": "address"
        },
        {
          "indexed": true,
          "internalType": "address",
          "name": "to",
          "type": "address"
        }
      ],
      "name": "OwnershipTransferRequested",
      "type": "event"
    },
    {
      "anonymous": false,
      "inputs": [
        {
          "indexed": true,
          "internalType": "address",
          "name": "from",
          "type": "address"
        },
        {
          "indexed": true,
          "internalType": "address",
          "name": "to",
          "type": "address"
        }
      ],
      "name": "OwnershipTransferred",
      "type": "event"
    },
    {
      "anonymous": false,
      "inputs": [
        {
          "indexed": true,
          "internalType": "bytes32",
          "name": "messageId",
          "type": "bytes32"
        },
        {
          "indexed": true,
          "internalType": "uint64",
          "name": "destinationChainSelector",
          "type": "uint64"
        },
        {
          "indexed": false,
          "internalType": "address",
          "name": "receiver",
          "type": "address"
        },
        {
          "indexed": false,
          "internalType": "address",
          "name": "token",
          "type": "address"
        },
        {
          "indexed": false,
          "internalType": "uint256",
          "name": "tokenAmount",
          "type": "uint256"
        },
        {
          "indexed": false,
          "internalType": "address",
          "name": "feeToken",
          "type": "address"
        },
        {
          "indexed": false,
          "internalType": "uint256",
          "name": "fees",
          "type": "uint256"
        }
      ],
      "name": "TokensTransferred",
      "type": "event"
    },
    {
      "inputs": [],
      "name": "acceptOwnership",
      "outputs": [],
      "stateMutability": "nonpayable",
      "type": "function"
    },
    {
      "inputs": [
        {
          "internalType": "uint64",
          "name": "_destinationChainSelector",
          "type": "uint64"
        },
        {
          "internalType": "bool",
          "name": "allowed",
          "type": "bool"
        }
      ],
      "name": "allowlistDestinationChain",
      "outputs": [],
      "stateMutability": "nonpayable",
      "type": "function"
    },
    {
      "inputs": [
        {
          "internalType": "uint64",
          "name": "",
          "type": "uint64"
        }
      ],
      "name": "allowlistedChains",
      "outputs": [
        {
          "internalType": "bool",
          "name": "",
          "type": "bool"
        }
      ],
      "stateMutability": "view",
      "type": "function"
    },
    {
      "inputs": [],
      "name": "owner",
      "outputs": [
        {
          "internalType": "address",
          "name": "",
          "type": "address"
        }
      ],
      "stateMutability": "view",
      "type": "function"
    },
    {
      "inputs": [
        {
          "internalType": "address",
          "name": "to",
          "type": "address"
        }
      ],
      "name": "transferOwnership",
      "outputs": [],
      "stateMutability": "nonpayable",
      "type": "function"
    },
    {
      "inputs": [
        {
          "internalType": "uint64",
          "name": "_destinationChainSelector",
          "type": "uint64"
        },
        {
          "internalType": "address",
          "name": "_receiver",
          "type": "address"
        },
        {
          "internalType": "address",
          "name": "_token",
          "type": "address"
        },
        {
          "internalType": "uint256",
          "name": "_amount",
          "type": "uint256"
        }
      ],
      "name": "transferTokensPayLINK",
      "outputs": [
        {
          "internalType": "bytes32",
          "name": "messageId",
          "type": "bytes32"
        }
      ],
      "stateMutability": "nonpayable",
      "type": "function"
    },
    {
      "inputs": [
        {
          "internalType": "uint64",
          "name": "_destinationChainSelector",
          "type": "uint64"
        },
        {
          "internalType": "address",
          "name": "_receiver",
          "type": "address"
        },
        {
          "internalType": "address",
          "name": "_token",
          "type": "address"
        },
        {
          "internalType": "uint256",
          "name": "_amount",
          "type": "uint256"
        }
      ],
      "name": "transferTokensPayNative",
      "outputs": [
        {
          "internalType": "bytes32",
          "name": "messageId",
          "type": "bytes32"
        }
      ],
      "stateMutability": "nonpayable",
      "type": "function"
    },
    {
      "inputs": [
        {
          "internalType": "address",
          "name": "_beneficiary",
          "type": "address"
        }
      ],
      "name": "withdraw",
      "outputs": [],
      "stateMutability": "nonpayable",
      "type": "function"
    },
    {
      "inputs": [
        {
          "internalType": "address",
          "name": "_beneficiary",
          "type": "address"
        },
        {
          "internalType": "address",
          "name": "_token",
          "type": "address"
        }
      ],
      "name": "withdrawToken",
      "outputs": [],
      "stateMutability": "nonpayable",
      "type": "function"
    },
    {
      "stateMutability": "payable",
      "type": "receive"
    }
  ],
  "bytecode": "0x60806040523480156200001157600080fd5b506040516200214938038062002149833981810160405281019062000037919062000359565b338060008073ffffffffffffffffffffffffffffffffffffffff168273ffffffffffffffffffffffffffffffffffffffff1603620000ac576040517f08c379a0000000000000000000000000000000000000000000000000000000008152600401620000a39062000401565b60405180910390fd5b816000806101000a81548173ffffffffffffffffffffffffffffffffffffffff021916908373ffffffffffffffffffffffffffffffffffffffff160217905550600073ffffffffffffffffffffffffffffffffffffffff168173ffffffffffffffffffffffffffffffffffffffff161462000133576200013281620001c060201b60201c565b5b50505081600360006101000a81548173ffffffffffffffffffffffffffffffffffffffff021916908373ffffffffffffffffffffffffffffffffffffffff16021790555080600460006101000a81548173ffffffffffffffffffffffffffffffffffffffff021916908373ffffffffffffffffffffffffffffffffffffffff160217905550505062000495565b3373ffffffffffffffffffffffffffffffffffffffff168173ffffffffffffffffffffffffffffffffffffffff160362000231576040517f08c379a0000000000000000000000000000000000000000000000000000000008152600401620002289062000473565b60405180910390fd5b80600160006101000a81548173ffffffffffffffffffffffffffffffffffffffff021916908373ffffffffffffffffffffffffffffffffffffffff1602179055508073ffffffffffffffffffffffffffffffffffffffff1660008054906101000a900473ffffffffffffffffffffffffffffffffffffffff1673ffffffffffffffffffffffffffffffffffffffff167fed8889f560326eb138920d842192f0eb3dd22b4f139c87a2c57538e05bae127860405160405180910390a350565b600080fd5b600073ffffffffffffffffffffffffffffffffffffffff82169050919050565b60006200032182620002f4565b9050919050565b620003338162000314565b81146200033f57600080fd5b50565b600081519050620003538162000328565b92915050565b60008060408385031215620003735762000372620002ef565b5b6000620003838582860162000342565b9250506020620003968582860162000342565b9150509250929050565b600082825260208201905092915050565b7f43616e6e6f7420736574206f776e657220746f207a65726f0000000000000000600082015250565b6000620003e9601883620003a0565b9150620003f682620003b1565b602082019050919050565b600060208201905081810360008301526200041c81620003da565b9050919050565b7f43616e6e6f74207472616e7366657220746f2073656c66000000000000000000600082015250565b60006200045b601783620003a0565b9150620004688262000423565b602082019050919050565b600060208201905081810360008301526200048e816200044c565b9050919050565b611ca480620004a56000396000f3fe60806040526004361061008a5760003560e01c806379ba50971161005957806379ba5097146101625780638da5cb5b1461017957806395e1402c146101a457806396d3b83d146101e1578063f2fde38b1461020a57610091565b80630bb106eb146100965780633aeac4e1146100d357806351419b4b146100fc57806351cff8d91461013957610091565b3661009157005b600080fd5b3480156100a257600080fd5b506100bd60048036038101906100b8919061134e565b610233565b6040516100ca9190611396565b60405180910390f35b3480156100df57600080fd5b506100fa60048036038101906100f5919061140f565b610253565b005b34801561010857600080fd5b50610123600480360381019061011e9190611485565b610397565b6040516101309190611505565b60405180910390f35b34801561014557600080fd5b50610160600480360381019061015b9190611520565b6106ad565b005b34801561016e57600080fd5b506101776107ab565b005b34801561018557600080fd5b5061018e610940565b60405161019b919061155c565b60405180910390f35b3480156101b057600080fd5b506101cb60048036038101906101c69190611485565b610969565b6040516101d89190611505565b60405180910390f35b3480156101ed57600080fd5b50610208600480360381019061020391906115a3565b610eb9565b005b34801561021657600080fd5b50610231600480360381019061022c9190611520565b610f04565b005b60026020528060005260406000206000915054906101000a900460ff1681565b61025b610f18565b60008173ffffffffffffffffffffffffffffffffffffffff166370a08231306040518263ffffffff1660e01b8152600401610296919061155c565b602060405180830381865afa1580156102b3573d6000803e3d6000fd5b505050506040513d601f19601f820116820180604052508101906102d791906115f8565b905060008103610313576040517fd0d04f6000000000000000000000000000000000000000000000000000000000815260040160405180910390fd5b8173ffffffffffffffffffffffffffffffffffffffff1663a9059cbb84836040518363ffffffff1660e01b815260040161034e929190611634565b6020604051808303816000875af115801561036d573d6000803e3d6000fd5b505050506040513d601f19601f820116820180604052508101906103919190611672565b50505050565b60006103a1610f18565b84600260008267ffffffffffffffff1667ffffffffffffffff16815260200190815260200160002060009054906101000a900460ff1661041857806040517f0a503cdb00000000000000000000000000000000000000000000000000000000815260040161040f91906116ae565b60405180910390fd5b60006104278686866000610fa8565b90506000600360009054906101000a900473ffffffffffffffffffffffffffffffffffffffff1673ffffffffffffffffffffffffffffffffffffffff166320487ded89846040518363ffffffff1660e01b81526004016104889291906118e0565b602060405180830381865afa1580156104a5573d6000803e3d6000fd5b505050506040513d601f19601f820116820180604052508101906104c991906115f8565b9050478111156105125747816040517f8f0f4206000000000000000000000000000000000000000000000000000000008152600401610509929190611910565b60405180910390fd5b8573ffffffffffffffffffffffffffffffffffffffff1663095ea7b3600360009054906101000a900473ffffffffffffffffffffffffffffffffffffffff16876040518363ffffffff1660e01b815260040161056f929190611634565b6020604051808303816000875af115801561058e573d6000803e3d6000fd5b505050506040513d601f19601f820116820180604052508101906105b29190611672565b50600360009054906101000a900473ffffffffffffffffffffffffffffffffffffffff1673ffffffffffffffffffffffffffffffffffffffff166396f4e9f9828a856040518463ffffffff1660e01b81526004016106119291906118e0565b60206040518083038185885af115801561062f573d6000803e3d6000fd5b50505050506040513d601f19601f820116820180604052508101906106549190611965565b93508767ffffffffffffffff16847fc15fb748c32ba4eb29c1c311e78533f93b4425eab49ea87c6fe4279ecadca04389898960008760405161069a959493929190611992565b60405180910390a3505050949350505050565b6106b5610f18565b6000479050600081036106f4576040517fd0d04f6000000000000000000000000000000000000000000000000000000000815260040160405180910390fd5b60008273ffffffffffffffffffffffffffffffffffffffff168260405161071a90611a16565b60006040518083038185875af1925050503d8060008114610757576040519150601f19603f3d011682016040523d82523d6000602084013e61075c565b606091505b50509050806107a6573383836040517f9d11f56300000000000000000000000000000000000000000000000000000000815260040161079d93929190611a2b565b60405180910390fd5b505050565b600160009054906101000a900473ffffffffffffffffffffffffffffffffffffffff1673ffffffffffffffffffffffffffffffffffffffff163373ffffffffffffffffffffffffffffffffffffffff161461083b576040517f08c379a000000000000000000000000000000000000000000000000000000000815260040161083290611abf565b60405180910390fd5b60008060009054906101000a900473ffffffffffffffffffffffffffffffffffffffff169050336000806101000a81548173ffffffffffffffffffffffffffffffffffffffff021916908373ffffffffffffffffffffffffffffffffffffffff1602179055506000600160006101000a81548173ffffffffffffffffffffffffffffffffffffffff021916908373ffffffffffffffffffffffffffffffffffffffff1602179055503373ffffffffffffffffffffffffffffffffffffffff168173ffffffffffffffffffffffffffffffffffffffff167f8be0079c531659141344cd1fd0a4f28419497f9722a3daafe3b4186f6b6457e060405160405180910390a350565b60008060009054906101000a900473ffffffffffffffffffffffffffffffffffffffff16905090565b6000610973610f18565b84600260008267ffffffffffffffff1667ffffffffffffffff16815260200190815260200160002060009054906101000a900460ff166109ea57806040517f0a503cdb0000000000000000000000000000000000000000000000000000000081526004016109e191906116ae565b60405180910390fd5b6000610a1a868686600460009054906101000a900473ffffffffffffffffffffffffffffffffffffffff16610fa8565b90506000600360009054906101000a900473ffffffffffffffffffffffffffffffffffffffff1673ffffffffffffffffffffffffffffffffffffffff166320487ded89846040518363ffffffff1660e01b8152600401610a7b9291906118e0565b602060405180830381865afa158015610a98573d6000803e3d6000fd5b505050506040513d601f19601f82011682018060405250810190610abc91906115f8565b9050600460009054906101000a900473ffffffffffffffffffffffffffffffffffffffff1673ffffffffffffffffffffffffffffffffffffffff166370a08231306040518263ffffffff1660e01b8152600401610b19919061155c565b602060405180830381865afa158015610b36573d6000803e3d6000fd5b505050506040513d601f19601f82011682018060405250810190610b5a91906115f8565b811115610c3b57600460009054906101000a900473ffffffffffffffffffffffffffffffffffffffff1673ffffffffffffffffffffffffffffffffffffffff166370a08231306040518263ffffffff1660e01b8152600401610bbc919061155c565b602060405180830381865afa158015610bd9573d6000803e3d6000fd5b505050506040513d601f19601f82011682018060405250810190610bfd91906115f8565b816040517f8f0f4206000000000000000000000000000000000000000000000000000000008152600401610c32929190611910565b60405180910390fd5b600460009054906101000a900473ffffffffffffffffffffffffffffffffffffffff1673ffffffffffffffffffffffffffffffffffffffff1663095ea7b3600360009054906101000a900473ffffffffffffffffffffffffffffffffffffffff16836040518363ffffffff1660e01b8152600401610cba929190611634565b6020604051808303816000875af1158015610cd9573d6000803e3d6000fd5b505050506040513d601f19601f82011682018060405250810190610cfd9190611672565b508573ffffffffffffffffffffffffffffffffffffffff1663095ea7b3600360009054906101000a900473ffffffffffffffffffffffffffffffffffffffff16876040518363ffffffff1660e01b8152600401610d5b929190611634565b6020604051808303816000875af1158015610d7a573d6000803e3d6000fd5b505050506040513d601f19601f82011682018060405250810190610d9e9190611672565b50600360009054906101000a900473ffffffffffffffffffffffffffffffffffffffff1673ffffffffffffffffffffffffffffffffffffffff166396f4e9f989846040518363ffffffff1660e01b8152600401610dfc9291906118e0565b6020604051808303816000875af1158015610e1b573d6000803e3d6000fd5b505050506040513d601f19601f82011682018060405250810190610e3f9190611965565b93508767ffffffffffffffff16847fc15fb748c32ba4eb29c1c311e78533f93b4425eab49ea87c6fe4279ecadca043898989600460009054906101000a900473ffffffffffffffffffffffffffffffffffffffff1687604051610ea6959493929190611992565b60405180910390a3505050949350505050565b610ec1610f18565b80600260008467ffffffffffffffff1667ffffffffffffffff16815260200190815260200160002060006101000a81548160ff0219169083151502179055505050565b610f0c610f18565b610f15816110e9565b50565b60008054906101000a900473ffffffffffffffffffffffffffffffffffffffff1673ffffffffffffffffffffffffffffffffffffffff163373ffffffffffffffffffffffffffffffffffffffff1614610fa6576040517f08c379a0000000000000000000000000000000000000000000000000000000008152600401610f9d90611b2b565b60405180910390fd5b565b610fb0611294565b6000600167ffffffffffffffff811115610fcd57610fcc611b4b565b5b60405190808252806020026020018201604052801561100657816020015b610ff36112d9565b815260200190600190039081610feb5790505b50905060405180604001604052808673ffffffffffffffffffffffffffffffffffffffff168152602001858152508160008151811061104857611047611b7a565b5b60200260200101819052506040518060a001604052808760405160200161106f919061155c565b60405160208183030381529060405281526020016040518060200160405280600081525081526020018281526020018473ffffffffffffffffffffffffffffffffffffffff1681526020016110db60405180604001604052806000815260200160001515815250611215565b815250915050949350505050565b3373ffffffffffffffffffffffffffffffffffffffff168173ffffffffffffffffffffffffffffffffffffffff1603611157576040517f08c379a000000000000000000000000000000000000000000000000000000000815260040161114e90611bf5565b60405180910390fd5b80600160006101000a81548173ffffffffffffffffffffffffffffffffffffffff021916908373ffffffffffffffffffffffffffffffffffffffff1602179055508073ffffffffffffffffffffffffffffffffffffffff1660008054906101000a900473ffffffffffffffffffffffffffffffffffffffff1673ffffffffffffffffffffffffffffffffffffffff167fed8889f560326eb138920d842192f0eb3dd22b4f139c87a2c57538e05bae127860405160405180910390a350565b60606397a657c960e01b826040516024016112309190611c53565b604051602081830303815290604052907bffffffffffffffffffffffffffffffffffffffffffffffffffffffff19166020820180517bffffffffffffffffffffffffffffffffffffffffffffffffffffffff83818316178352505050509050919050565b6040518060a00160405280606081526020016060815260200160608152602001600073ffffffffffffffffffffffffffffffffffffffff168152602001606081525090565b6040518060400160405280600073ffffffffffffffffffffffffffffffffffffffff168152602001600081525090565b600080fd5b600067ffffffffffffffff82169050919050565b61132b8161130e565b811461133657600080fd5b50565b60008135905061134881611322565b92915050565b60006020828403121561136457611363611309565b5b600061137284828501611339565b91505092915050565b60008115159050919050565b6113908161137b565b82525050565b60006020820190506113ab6000830184611387565b92915050565b600073ffffffffffffffffffffffffffffffffffffffff82169050919050565b60006113dc826113b1565b9050919050565b6113ec816113d1565b81146113f757600080fd5b50565b600081359050611409816113e3565b92915050565b6000806040838503121561142657611425611309565b5b6000611434858286016113fa565b9250506020611445858286016113fa565b9150509250929050565b6000819050919050565b6114628161144f565b811461146d57600080fd5b50565b60008135905061147f81611459565b92915050565b6000806000806080858703121561149f5761149e611309565b5b60006114ad87828801611339565b94505060206114be878288016113fa565b93505060406114cf878288016113fa565b92505060606114e087828801611470565b91505092959194509250565b6000819050919050565b6114ff816114ec565b82525050565b600060208201905061151a60008301846114f6565b92915050565b60006020828403121561153657611535611309565b5b6000611544848285016113fa565b91505092915050565b611556816113d1565b82525050565b6000602082019050611571600083018461154d565b92915050565b6115808161137b565b811461158b57600080fd5b50565b60008135905061159d81611577565b92915050565b600080604083850312156115ba576115b9611309565b5b60006115c885828601611339565b92505060206115d98582860161158e565b9150509250929050565b6000815190506115f281611459565b92915050565b60006020828403121561160e5761160d611309565b5b600061161c848285016115e3565b91505092915050565b61162e8161144f565b82525050565b6000604082019050611649600083018561154d565b6116566020830184611625565b9392505050565b60008151905061166c81611577565b92915050565b60006020828403121561168857611687611309565b5b60006116968482850161165d565b91505092915050565b6116a88161130e565b82525050565b60006020820190506116c3600083018461169f565b92915050565b600081519050919050565b600082825260208201905092915050565b60005b838110156117035780820151818401526020810190506116e8565b60008484015250505050565b6000601f19601f8301169050919050565b600061172b826116c9565b61173581856116d4565b93506117458185602086016116e5565b61174e8161170f565b840191505092915050565b600081519050919050565b600082825260208201905092915050565b6000819050602082019050919050565b61178e816113d1565b82525050565b61179d8161144f565b82525050565b6040820160008201516117b96000850182611785565b5060208201516117cc6020850182611794565b50505050565b60006117de83836117a3565b60408301905092915050565b6000602082019050919050565b600061180282611759565b61180c8185611764565b935061181783611775565b8060005b8381101561184857815161182f88826117d2565b975061183a836117ea565b92505060018101905061181b565b5085935050505092915050565b600060a08301600083015184820360008601526118728282611720565b9150506020830151848203602086015261188c8282611720565b915050604083015184820360408601526118a682826117f7565b91505060608301516118bb6060860182611785565b50608083015184820360808601526118d38282611720565b9150508091505092915050565b60006040820190506118f5600083018561169f565b81810360208301526119078184611855565b90509392505050565b60006040820190506119256000830185611625565b6119326020830184611625565b9392505050565b611942816114ec565b811461194d57600080fd5b50565b60008151905061195f81611939565b92915050565b60006020828403121561197b5761197a611309565b5b600061198984828501611950565b91505092915050565b600060a0820190506119a7600083018861154d565b6119b4602083018761154d565b6119c16040830186611625565b6119ce606083018561154d565b6119db6080830184611625565b9695505050505050565b600081905092915050565b50565b6000611a006000836119e5565b9150611a0b826119f0565b600082019050919050565b6000611a21826119f3565b9150819050919050565b6000606082019050611a40600083018661154d565b611a4d602083018561154d565b611a5a6040830184611625565b949350505050565b600082825260208201905092915050565b7f4d7573742062652070726f706f736564206f776e657200000000000000000000600082015250565b6000611aa9601683611a62565b9150611ab482611a73565b602082019050919050565b60006020820190508181036000830152611ad881611a9c565b9050919050565b7f4f6e6c792063616c6c61626c65206279206f776e657200000000000000000000600082015250565b6000611b15601683611a62565b9150611b2082611adf565b602082019050919050565b60006020820190508181036000830152611b4481611b08565b9050919050565b7f4e487b7100000000000000000000000000000000000000000000000000000000600052604160045260246000fd5b7f4e487b7100000000000000000000000000000000000000000000000000000000600052603260045260246000fd5b7f43616e6e6f74207472616e7366657220746f2073656c66000000000000000000600082015250565b6000611bdf601783611a62565b9150611bea82611ba9565b602082019050919050565b60006020820190508181036000830152611c0e81611bd2565b9050919050565b611c1e8161137b565b82525050565b604082016000820151611c3a6000850182611794565b506020820151611c4d6020850182611c15565b50505050565b6000604082019050611c686000830184611c24565b9291505056fea2646970667358221220bb70720498e2f230a95297419a13b7c234b60bcfe08e20648bc71b7fad7084c264736f6c63430008130033",
  "linkReferences": {},
  "deployedLinkReferences": {}
}