{
  "_format": "hh-sol-artifact-1",
  "contractName": "SampleDeFiContract",
  "sourceName": "contracts/POR.sol",
  "abi": [
    {
      "inputs": [],
      "stateMutability": "nonpayable",
      "type": "constructor"
    },
    {
      "anonymous": false,
      "inputs": [
        {
          "indexed": true,
          "internalType": "address",
          "name": "from",
          "type": "address"
        },
        {
          "indexed": false,
          "internalType": "uint256",
          "name": "value",
          "type": "uint256"
        }
      ],
      "name": "Deposit",
      "type": "event"
    },
    {
      "anonymous": false,
      "inputs": [
        {
          "indexed": true,
          "internalType": "address",
          "name": "to",
          "type": "address"
        },
        {
          "indexed": false,
          "internalType": "uint256",
          "name": "value",
          "type": "uint256"
        }
      ],
      "name": "Withdrawal",
      "type": "event"
    },
    {
      "inputs": [
        {
          "internalType": "uint256",
          "name": "amount",
          "type": "uint256"
        }
      ],
      "name": "depositIntoPool",
      "outputs": [
        {
          "internalType": "bool",
          "name": "",
          "type": "bool"
        }
      ],
      "stateMutability": "nonpayable",
      "type": "function"
    },
    {
      "inputs": [],
      "name": "getCollateralAmounts",
      "outputs": [
        {
          "internalType": "uint256",
          "name": "",
          "type": "uint256"
        },
        {
          "internalType": "int256",
          "name": "",
          "type": "int256"
        }
      ],
      "stateMutability": "view",
      "type": "function"
    },
    {
      "inputs": [],
      "name": "isFullyCollateralized",
      "outputs": [
        {
          "internalType": "bool",
          "name": "",
          "type": "bool"
        }
      ],
      "stateMutability": "view",
      "type": "function"
    },
    {
      "inputs": [
        {
          "internalType": "uint256",
          "name": "amount",
          "type": "uint256"
        }
      ],
      "name": "withdrawFromPool",
      "outputs": [
        {
          "internalType": "bool",
          "name": "",
          "type": "bool"
        }
      ],
      "stateMutability": "nonpayable",
      "type": "function"
    }
  ],
  "bytecode": "0x608060405234801561001057600080fd5b5073a284e0acb9a5f46ce7884d9929fa573ff842d7b36000806101000a81548173ffffffffffffffffffffffffffffffffffffffff021916908373ffffffffffffffffffffffffffffffffffffffff160217905550730f2071079315ba5a1c6d5b532a01a132c157ac83600160006101000a81548173ffffffffffffffffffffffffffffffffffffffff021916908373ffffffffffffffffffffffffffffffffffffffff160217905550610c13806100c96000396000f3fe608060405234801561001057600080fd5b506004361061004c5760003560e01c80630ad7ef511461005157806330fc43ed1461006f5780637476083b1461009f578063c46dac0e146100cf575b600080fd5b6100596100ee565b6040516100669190610691565b60405180910390f35b610089600480360381019061008491906106e7565b61011f565b6040516100969190610691565b60405180910390f35b6100b960048036038101906100b491906106e7565b610338565b6040516100c69190610691565b60405180910390f35b6100d76104d9565b6040516100e592919061073c565b60405180910390f35b60008060006100fb6104d9565b9150915060008112156101135760009250505061011c565b80821115925050505b90565b60006101296100ee565b610168576040517f08c379a000000000000000000000000000000000000000000000000000000000815260040161015f906107e8565b60405180910390fd5b81600260003373ffffffffffffffffffffffffffffffffffffffff1673ffffffffffffffffffffffffffffffffffffffff1681526020019081526020016000205410156101ea576040517f08c379a00000000000000000000000000000000000000000000000000000000081526004016101e19061087a565b60405180910390fd5b81600260003373ffffffffffffffffffffffffffffffffffffffff1673ffffffffffffffffffffffffffffffffffffffff168152602001908152602001600020600082825461023991906108c9565b92505081905550600160009054906101000a900473ffffffffffffffffffffffffffffffffffffffff1673ffffffffffffffffffffffffffffffffffffffff1663a9059cbb33846040518363ffffffff1660e01b815260040161029d92919061093e565b6020604051808303816000875af11580156102bc573d6000803e3d6000fd5b505050506040513d601f19601f820116820180604052508101906102e09190610993565b503373ffffffffffffffffffffffffffffffffffffffff167f7fcf532c15f0a6db0bd6d0e038bea71d30d808c7d98cb3bf7268a95bf5081b658360405161032791906109c0565b60405180910390a260019050919050565b60006103426100ee565b610381576040517f08c379a0000000000000000000000000000000000000000000000000000000008152600401610378906107e8565b60405180910390fd5b600160009054906101000a900473ffffffffffffffffffffffffffffffffffffffff1673ffffffffffffffffffffffffffffffffffffffff166323b872dd3330856040518463ffffffff1660e01b81526004016103e0939291906109db565b6020604051808303816000875af11580156103ff573d6000803e3d6000fd5b505050506040513d601f19601f820116820180604052508101906104239190610993565b61042c57600080fd5b81600260003373ffffffffffffffffffffffffffffffffffffffff1673ffffffffffffffffffffffffffffffffffffffff168152602001908152602001600020600082825461047b9190610a12565b925050819055503373ffffffffffffffffffffffffffffffffffffffff167fe1fffcc4923d04b559f4d29a8bfc6cda04eb5b0d3c460751c2402c5c5cc9109c836040516104c891906109c0565b60405180910390a260019050919050565b6000806000600160009054906101000a900473ffffffffffffffffffffffffffffffffffffffff1673ffffffffffffffffffffffffffffffffffffffff166318160ddd6040518163ffffffff1660e01b8152600401602060405180830381865afa15801561054b573d6000803e3d6000fd5b505050506040513d601f19601f8201168201806040525081019061056f9190610a5b565b905060008060008060009054906101000a900473ffffffffffffffffffffffffffffffffffffffff1673ffffffffffffffffffffffffffffffffffffffff1663feaf968c6040518163ffffffff1660e01b815260040160a060405180830381865afa1580156105e2573d6000803e3d6000fd5b505050506040513d601f19601f820116820180604052508101906106069190610af6565b94505050925092508069ffffffffffffffffffff168369ffffffffffffffffffff1614610668576040517f08c379a000000000000000000000000000000000000000000000000000000000815260040161065f90610bbd565b60405180910390fd5b838295509550505050509091565b60008115159050919050565b61068b81610676565b82525050565b60006020820190506106a66000830184610682565b92915050565b600080fd5b6000819050919050565b6106c4816106b1565b81146106cf57600080fd5b50565b6000813590506106e1816106bb565b92915050565b6000602082840312156106fd576106fc6106ac565b5b600061070b848285016106d2565b91505092915050565b61071d816106b1565b82525050565b6000819050919050565b61073681610723565b82525050565b60006040820190506107516000830185610714565b61075e602083018461072d565b9392505050565b600082825260208201905092915050565b7f506f6f6c7320706175736564207768696c6520617373657420756e646572206360008201527f6f6c6c61746572616c697a65642e000000000000000000000000000000000000602082015250565b60006107d2602e83610765565b91506107dd82610776565b604082019050919050565b60006020820190508181036000830152610801816107c5565b9050919050565b7f5769746864726177616c20616d6f756e7420657863656564732062616c616e6360008201527f652e000000000000000000000000000000000000000000000000000000000000602082015250565b6000610864602283610765565b915061086f82610808565b604082019050919050565b6000602082019050818103600083015261089381610857565b9050919050565b7f4e487b7100000000000000000000000000000000000000000000000000000000600052601160045260246000fd5b60006108d4826106b1565b91506108df836106b1565b92508282039050818111156108f7576108f661089a565b5b92915050565b600073ffffffffffffffffffffffffffffffffffffffff82169050919050565b6000610928826108fd565b9050919050565b6109388161091d565b82525050565b6000604082019050610953600083018561092f565b6109606020830184610714565b9392505050565b61097081610676565b811461097b57600080fd5b50565b60008151905061098d81610967565b92915050565b6000602082840312156109a9576109a86106ac565b5b60006109b78482850161097e565b91505092915050565b60006020820190506109d56000830184610714565b92915050565b60006060820190506109f0600083018661092f565b6109fd602083018561092f565b610a0a6040830184610714565b949350505050565b6000610a1d826106b1565b9150610a28836106b1565b9250828201905080821115610a4057610a3f61089a565b5b92915050565b600081519050610a55816106bb565b92915050565b600060208284031215610a7157610a706106ac565b5b6000610a7f84828501610a46565b91505092915050565b600069ffffffffffffffffffff82169050919050565b610aa781610a88565b8114610ab257600080fd5b50565b600081519050610ac481610a9e565b92915050565b610ad381610723565b8114610ade57600080fd5b50565b600081519050610af081610aca565b92915050565b600080600080600060a08688031215610b1257610b116106ac565b5b6000610b2088828901610ab5565b9550506020610b3188828901610ae1565b9450506040610b4288828901610a46565b9350506060610b5388828901610a46565b9250506080610b6488828901610ab5565b9150509295509295909350565b7f5374616c652070726f6f662d6f662d726573657276657320616e737765722e00600082015250565b6000610ba7601f83610765565b9150610bb282610b71565b602082019050919050565b60006020820190508181036000830152610bd681610b9a565b905091905056fea2646970667358221220e071429d6d354c28f56981690cd1d782a944d7eecd374310e69022ab2a72432c64736f6c63430008140033",
  "linkReferences": {},
  "deployedLinkReferences": {}
}